:020000040800F2
:10000000C00600204D020008D9130008D1130008D3
:10001000D513000851040008FD130008000000007B
:10002000000000000000000000000000E1130008D4
:100030005504000800000000DD130008E513000867
:1000400067020008670200086702000867020008EC
:1000500067020008670200086702000867020008DC
:1000600067020008670200086702000867020008CC
:1000700067020008670200086702000867020008BC
:1000800067020008670200084504000867020008CC
:10009000670200086702000867020008670200089C
:1000A000670200086702000867020008670200088C
:1000B000670200086702000867020008670200087C
:1000C000670200086702000867020008670200086C
:1000D000670200086702000867020008670200085C
:1000E000670200086702000867020008670200084C
:1000F000670200086702000867020008670200083C
:10010000670200086702000867020008670200082B
:10011000670200086702000867020008670200081B
:10012000670200086702000867020008670200080B
:1001300067020008670200086702000867020008FB
:1001400067020008670200086702000867020008EB
:1001500067020008670200086702000867020008DB
:1001600067020008670200086702000867020008CB
:10017000670200086702000867020008000000002C
:1001800067020008670200086702000867020008AB
:10019000670200086702000867020008670200089B
:1001A00067020008670200086702000800F002F812
:1001B00000F03CF80AA090E8000C82448344AAF1C5
:1001C0000107DA4501D100F031F8AFF2090EBAE8C3
:1001D0000F0013F0010F18BFFB1A43F0010318477B
:1001E0007C1300009C130000103A24BF78C878C12B
:1001F000FAD8520724BF30C830C144BF04680C602D
:10020000704700000023002400250026103A28BF74
:1002100078C1FBD8520728BF30C148BF0B60704778
:100220001FB501F085F91FBD10B510BD00F0D0F865
:100230001146FFF7F5FF01F0E3F800F0EEF803B424
:10024000FFF7F2FF03BC00F0F5F800000948804713
:1002500009480047FEE7FEE7FEE7FEE7FEE7FEE7A8
:10026000FEE7FEE7FEE7FEE704480549054A064BC0
:1002700070470000E9130008AD010008C00000202D
:10028000C0060020C0020020C002002053EA020C79
:1002900000F069802DE9F04B4FF00006002B1FBFE6
:1002A000B3FA83F503FA05F424FA05F65E4012BFAB
:1002B0001643B2FA82F502FA05F4C5F120051EBF15
:1002C00022FA05FC44EA0C04203556EA044C4FEAB5
:1002D000144418BF641C4FF000084FF0000990420E
:1002E00071EB030C39D3002919BFB1FA81F701FA78
:1002F00007F6B0FA80F700FA07F6C7F120071EBF2D
:1003000020FA07FC46EA0C062037B6FBF4FCA7EB04
:100310000507103F07F01F0BCBF120062CFA06F65D
:100320000CFA0BFB44BFB3460026202FA4BF5E4649
:100330004FF0000B5BEA060C08BF4FF0010B19EB06
:100340000B0948EB0608ABFB027C06FB02CC0BFB5F
:1003500003CCC01B71EB0C01C1E70B4602464146C2
:100360004846BDE8F08B13B5084318BF4FF0FF3087
:100370000146AFF30080BDE81C4070474FF000021B
:1003800000B5134694469646203922BFA0E80C508B
:10039000A0E80C50B1F12001BFF4F7AF090728BF66
:1003A000A0E80C5048BF0CC05DF804EB890028BFE2
:1003B00040F8042B08BF704748BF20F8022B11F00B
:1003C000804F18BF00F8012B704770477047704787
:1003D000754600F02BF8AE4605006946534620F0FE
:1003E0000700854618B020B5FFF73EFFBDE8204066
:1003F0004FF000064FF000074FF000084FF0000BE1
:10040000AC46ACE8C009ACE8C009ACE8C009ACE84F
:10041000C00921F007018D46704710B50446AFF3BF
:1004200000802046BDE81040FFF709BF0048704734
:100430001000002001491820ABBEFEE72600020094
:100440007047000040F27000C2F2000000F0BCB83B
:10045000FEE70000704700007047000070B581B0F3
:100460000022009290F83C20012A03D10221084684
:1004700001B070BD0E6801220A2E80F83C2009D31D
:10048000B2B25200D0F800E012FA86F21E3A0EF133
:100490000C0305E0D0F800E006EB46020EF1100375
:1004A0004FF0070C1D680CFA02F4A5431D608D681F
:1004B0001C6805FA02F222431A604968062905D829
:1004C00001EB810105390EF1340309E00C2901EB40
:1004D000810187BF41390EF12C0323390EF130031E
:1004E0001F221C688A4024EA020242F2043C1A607D
:1004F000C4F2010CB2B21C6802FA01F1ACF541720F
:1005000021439645196005D0002180F83C1008462B
:1005100001B070BD1221112EC1F2000118BF8E4230
:100520003AD1DCF800208E4222F48002CCF8002080
:10053000DCF8002042F40002CCF80020E4D140F2C4
:100540000801C2F2000109684DF68362C4F21B3251
:10055000A1FB0212910C01EB81014900009100996D
:100560000029D1D000990139009100990029CBD000
:1005700000990139009100990029C5D000990139ED
:10058000009100990029BFD000990139009100998C
:100590000029E7D1B8E700BF122EB5D1DCF8001072
:1005A00021F40001CCF80010DCF8001041F48001C7
:1005B000CCF80010A8E7000070470000704700006A
:1005C0000068C06C7047000070B50446006806689B
:1005D0004568B10717D515F0200114D0216CC90664
:1005E00003D4216C41F400712164816811F0405FF3
:1005F00002D1217E002969D02046FFF7DDFF206867
:100600006FF012010160710714D515F0800111D04F
:10061000216CC90603D4216C41F400512164816826
:1006200011F4401F22D02046FFF716FF20686FF01C
:100630000C010160F10706D015F040011CBF0168F4
:100640005FEAC17134D1B1060FD515F0806108BFE2
:1006500070BD616C6FF0200541F0020161640560BE
:100660002046FFF7ABFF2068056070BD816B11F479
:10067000401F02D081684905D5D441684905D2D4CC
:10068000816811F0405FCED1217E0029CBD1416835
:1006900021F080014160206C20F480502064206CA7
:1006A000C005C0D4206C40F001002064BBE700BF4F
:1006B000206C40F480302064204600F0D1F820689F
:1006C0006FF001010160B106BFD4CEE7C16A11F439
:1006D000700F03D0816849053FF58EAF416821F066
:1006E00020014160206C20F480702064206CC004E4
:1006F0003FF582AF206C40F0010020647CE70000F1
:10070000002804BF0120704710B50446006C002883
:100710003ED0206CC00645D4206C41F202118843C3
:10072000023042F204312064C4F20101086820F46E
:10073000403008600A6894E809101A43D4F810E0C1
:100740000A604168012321F4807141604168C0F66C
:10075000007341EA0E214160416821F0407141601F
:10076000416841EA0C014160816821F400618160C7
:10077000E168826811438160A16A8268994222F02F
:1007800070628260826813D122F0405119E000BF8C
:10079000204600F067F80020606484F83C00206C7C
:1007A000C006B9D50120002184F83C1010BD00BF5F
:1007B00011438160816821F040518160E16A826863
:1007C00011438160816821F0020181608168227E8D
:1007D00094F8203041EA42018160416883B141F4DC
:1007E0000061416041684EF2000221F460414160C5
:1007F000616ACFF6FF72436802EB4131194301E0B1
:1008000021F400614160C16A40F2000C21F47001E2
:10081000C162E2696169CFF6F07CC36A0CEB0252F7
:100820001A43C262826822F40072826094F8302017
:10083000836843EA42228260826822F48062826096
:10084000826842EA8121816000206064216C01227B
:1008500062F301012164002184F83C1010BD000006
:100860007047000080B586B042F200010068C4F213
:100870000101002288420592049201D006B080BD99
:1008800043F630000092C4F20200436943F48073DF
:100890004361436903F480730093009B00920368F3
:1008A00043F001030360006800F00100009000982D
:1008B000012001900320CDE9020201F5604001A969
:1008C00000F034F912200021002200F08DFA1220ED
:1008D00000F07AFA06B080BD70B5044600680D4697
:1008E0008268520544BF80685FEAC05038D400F087
:1008F000FBF921680A68920749D40646681C3CD077
:10090000DDB90868800721D5086880073FD40868EA
:1009100080071BD50868800739D40868800715D57B
:100920000868800733D4086880070FD508688007F7
:10093000E7D52CE00868800729D400F0D5F9801BA2
:100940002168A842F6D908688007F3D4206C40F0EB
:1009500004002064002084F83C00032070BD00BF28
:10096000206C40F020002064002084F83C0001202E
:1009700070BD00BF0868800709D40868800706D4E6
:10098000086880075CBF08685FEA8070F2D56FF086
:1009900012000860206C40F400702064886810F039
:1009A000405F01D1207E08B1002070BDC86A10F4FC
:1009B000700F02D088684005F6D4206C20F4807057
:1009C0002064206CC004EFD4206C40F0010020644F
:1009D000002070BD10B581B00021009190F83C104E
:1009E000012903D1022001B010BD00BF046801211C
:1009F00080F83C10214651F8083FDB0729D10B68ED
:100A00004DF6836243F001030B6040F20803C2F22B
:100A100000031B68C4F21B32A3FB02239A0C02EBF7
:100A200042020092009AA2B1009A013A0092009A02
:100A30007AB1009A013A0092009A52B1009A013AB2
:100A40000092009A2AB1009A013A0092009A002A74
:100A5000EAD10A68036CD2070AD143F0100101649D
:100A600000F1440101200A681043086056E000BF0D
:100A700040F2017223EA020202F5807202646268A7
:100A8000520504D5026C012363F30D320264026C3B
:100A90004FF0000E0023D20444BF426C22F0060344
:100AA00042F2043C436480F83CE06FF02200C4F260
:100AB000010C2060DCF80000C0060DD0ACF54170E0
:100AC00084422BD14FF60450CFF6FF705CF8000043
:100AD00010F0405F22D125E042F20000C4F2010094
:100AE000844217D042F20020C4F2010084420DD0AB
:100AF00042F20010C4F2010084420FD1DCF8000081
:100B0000C00607D0ACF58270844207D1DCF8000043
:100B1000C00603D4086810F0405F03D0002001B085
:100B200010BD00BF4FF080409DE700002DE9F04F61
:100B300082B000F13E4242F2004502F1FF77C4F27A
:100B400002050A224FEAB726A84208BF0922092E49
:100B500038BF4FEAB7224FF0010A002400274FF0B8
:100B60000008009208E000BF023708F10108202FBA
:100B700004F1040400F0B4800E680AFA08F916EAD9
:100B8000090FF1D0D1F804A00AF0030BABF1010674
:100B9000012E17D80322866802FA07FECA6826EAE1
:100BA0000E06BA40324382604268CAF3001522EA58
:100BB000090205FA08F54FEA480C6FEA0E062A43C7
:100BC00042600BE00322BA40D643BBF1030FBC46A0
:100BD00004D1BC464FF0030B22E000BFC2688D6811
:100BE000324005FA0CF52A43BBF1020FC26017D15F
:100BF0006FF0030202EA5802024404F01C030F25BE
:100C0000D2F820E005FA03FA0D692EEA0A0E05FA79
:100C100003F343EA0E031362D1F804A00AF0030BB6
:100C200002680BFA0CF332401A431AF4403F4FF0BB
:100C3000010A026098D0002243F644030192C4F2F4
:100C400002031A6843F6004E42F480421A601A68A2
:100C5000C4F2010E02F480420192019A28F00302CC
:100C60004FF6084C7244CFF6FF7C52F80C3004F07B
:100C70000C060F25B540AB43009D05FA06F633433D
:100C800042F80C30DEF808204B6842EA090643F6C9
:100C90000C4CDD0258BF22EA0906CEF80860C4F207
:100CA000010CDCF800209D0242EA090658BF22EA46
:100CB0000906CCF80060DEF804209D0342EA09062C
:100CC00058BF22EA0906CEF80460DEF80020DB03F4
:100CD00042EA090658BF22EA0906CEF8006043E757
:100CE00002B0BDE8F08F000040F2B800C2F2000090
:100CF0000068704740F2000040F2B801C2F2000004
:100D0000C2F2000100780A681044086070470000D1
:100D100080B543F60040C4F20200016841F400715E
:100D20000160016841F480610160016841F48071F3
:100D30000160032000F084F80F2000F005F800F0B7
:100D400027F8002080BD000070B540F20006C2F216
:100D5000000640F208013278C2F200014FF47A73C3
:100D60000968B3FBF2F20446B1FBF2F1084600F069
:100D700019FB0F2C4FF0010508D838B94FF0FF30A0
:100D800021460022002500F02FF87460284670BD2F
:100D900082B0002043F640010190C4F202014A688B
:100DA00042F480424A604A6802F480420192019A09
:100DB0000090086840F080500860086800F080509B
:100DC0000090009802B07047002848BF704700F0BC
:100DD0001F01012202FA01F14EF200124009CEF287
:100DE000000242F82010704710B54EF60C5CCEF2AF
:100DF000000CDCF80030C3F3022E8EF00704042C44
:100E000028BF0424BEF103034FF0FF3E0EFA04F4A2
:100E100038BF0023A14399400EFA03F39A431143CC
:100E200000F00F02043A624409010C3200F1604301
:100E3000B0F1FF3FC8BF03F56442117010BD000060
:100E40004EF60C51CEF200010A684FF6FF031A402D
:100E500060F30A2242F0806040F0FD700860704745
:100E60002DE9F041002800F08B8043F60808C4F219
:100E700002080446D8F8F8030D4600F00F00884237
:100E800007D288F8F853D8F8F80300F00F00A8420A
:100E900076D12068810717D5410705D5D8F800100D
:100EA00041F4E051C8F80010010705D5D8F800104A
:100EB00041F46041C8F80010D8F80010A26821F091
:100EC000F0011143C8F80010C0073FD1D8F8F8036B
:100ED00000F00F00A84207D988F8F853D8F8F803B3
:100EE00000F00F00A8424BD12068410707D5D8F881
:100EF0000010E26821F4E0511143C8F80010000727
:100F000008D5D8F80000216920F4604040EAC1000B
:100F1000C8F8000000F054F8D8F8001041F24A5226
:100F2000C1F30311C0F60002515C40F2080220FA3E
:100F300001F140F20400C2F200000068C2F20002B7
:100F40001160FFF701FF0020BDE8F0816068811E9D
:100F5000022907D258F8081C89015CBF0120BDE8AE
:100F6000F08111E0012807D158F8081C89035CBF03
:100F70000120BDE8F08107E058F8081C890703D478
:100F80000120BDE8F08100BFD8F8001021F0030176
:100F90000843C8F80000FFF7A7FE064641F288376D
:100FA000D8F80000616800F00C00B0EB810F8DD024
:100FB000FFF79AFE801BB842F2D90320BDE8F0810A
:100FC00010B543F60404C4F20204606800F00C009B
:100FD00008280BD0042819BF42F20040C0F2F400E8
:100FE00047F64000C0F27D1010BD00BF20682168A8
:100FF0002368490247F64001C0F27D1100F03F022C
:10100000C3F388105CBF42F20041C0F2F401A1FBBF
:1010100000010023FFF73AF921680222C1F30141E0
:1010200002EB4101B0FBF1F010BD00002DE9F041F1
:1010300082B000286AD00446007843F60006C00754
:10104000C4F202060BD0B06800F00C00042840F097
:10105000A1803068800302D56068002856D02078CF
:1010600080071AD5B06810F00C0F09D0B06800F0F6
:101070000C00082840F0A8807068400200F1A480AD
:101080003068800702D5E06801283FD130682169C7
:1010900020F0F80040EAC10030602078000739D421
:1010A000207840074ED4A5695DB3B06800F00C000D
:1010B000082840F0BD80012D28D07068E16900F457
:1010C00080028A4222D1216A00F03F028A421DD169
:1010D00047F6C071626A0140B1EB821F16D1A26A65
:1010E0000023CFF6FF7303EBC23200F440316FF3FD
:1010F0000F0291420AD1E16A00F07060B0EB016F1B
:1011000004D1002002B0BDE8F08100BF012002B090
:10111000BDE8F0816069002840F20000C4F2472079
:1011200076D00121C0F8801EFFF7DEFD054600BF26
:10113000706F8007B4D4FFF7D7FD401B0228F7D9A2
:10114000DDE000BF306C10F080580AD10020019023
:10115000306C40F080503064306C00F08050019072
:10116000019847F20007C4F200073868C00541D46F
:10117000386840F480703860FFF7B6FD054600BF60
:101180003868C00536D4FFF7AFFD401B0228F7D9F9
:10119000B5E000BFB06800F00C00082803D170680B
:1011A00040023FF556AF6068B0F5803F07D0B0F51C
:1011B000A02F40F08D80306840F48020306030688F
:1011C00040F4803030608DE0E068002852D000208C
:1011D000C4F2472001210160FFF786FD054600BFEC
:1011E000306880073FF552AFFFF77EFD401B0228B5
:1011F000F6D984E0A068012805D005284ED1306FCB
:1012000040F004003067306F40F0010030674FE07D
:101210000021C0F8801EFFF767FD0546706F80074C
:101220007FF53EAFFFF760FD401B0228F6D966E070
:101230000027C4F2472700203866FFF755FD022D2E
:1012400005460BD1306880015ED5FFF74DFD401B90
:1012500002284FF00300F5D954E700BF3068800141
:101260007FF54FAFFFF740FD401B02284FF0030012
:10127000F4D947E70020C4F2472000210160FFF7BE
:1012800033FD0546306880077FF507AFFFF72CFD7B
:10129000401B02284FF00300F4D933E7316F0028D8
:1012A00021F001013167316F21F0040131674DD028
:1012B000FFF71AFD054641F2883700BF306F8007FF
:1012C00056D4FFF711FD401BB842F7D917E000BF15
:1012D0003168002821F480313160316821F48021A7
:1012E00031604FD0FFF700FD054600BF3068800336
:1012F0003FF5B5AEFFF7F8FC401B6428F6D9032094
:1013000002B0BDE8F08100BF04F11C052FCD0843F9
:101310000021CFF6FF7140EA821001EBC3316FF379
:101320000F0140EA05600843706001203866FFF74E
:10133000DBFC0446306880013FF5E3AEFFF7D4FCE8
:10134000001B02284FF00300F4D9DBE6FFF7CCFCCA
:10135000054641F2883700BF306F800708D5FFF798
:10136000C3FC401BB8424FF00300F5D9CAE600BFEA
:10137000B8F1000F7FF497AE306C20F080503064ED
:1013800091E600BFFFF7B0FC054600BF3068800360
:101390007FF565AEFFF7A8FC401B64284FF0030003
:1013A000F4D9AFE6411E0020B0EB116F1CBF012045
:1013B00070474EF21002CEF2000251604EF62351F9
:1013C000CEF20001F0230B7007219060116070478E
:1013D000FEE70000FEE70000FEE7000070470000A7
:1013E00070470000FFF786BC4EF68850CEF2000032
:1013F000016841F47001016070470000FEE70000E1
:1014000092B043F6300647F20005C4F20206C4F279
:101410000005FFF77DFC06AC201D2C21FEF7AEFF7A
:1014200000270597CDE90377CDE90177009730696B
:10143000012140F080503061306900F08050009010
:1014400000980097286861F38F302860286800F4BE
:101450004040009000980220069010200A902046FC
:1014600009910C97FFF7E2FD20B1EFF3108072B6FF
:10147000FEE700BF0F20CDE9010701A80021CDE95B
:1014800003770597FFF7ECFC20B1EFF3108072B6FD
:10149000FEE700BF002406943068012240F00100FE
:1014A0003060306805F5304100F001000690069884
:1014B00040F27000C2F20000C0F6007201250994EB
:1014C000047680F82040C0E90A24C56180F83040E5
:1014D000C0E90014C0E90244C0E90445FFF710F96F
:1014E00020B1EFF3108072B6FEE700BF40F270004B
:1014F000C2F2000006A9CDE906450894FEF7AEFF4A
:1015000020B1EFF3108072B6FEE700BF40F2700426
:10151000C2F200042046FFF75DFA00BF2046052115
:10152000FFF7DAF90028F9D12046FFF749F8F5E787
:10153000F1EE100A4FF6FF71C0F2C03120EA01004F
:1015400040F04070E1EE100A70470000000000001B
:1015500000000102030406070809000080150008C6
:101560000000002010000000E801000890150008AD
:1015700010000020B0060000040200080000000077
:1015800001000000100000000024F4000000000032
:04000005080001AD41
:00000001FF
