:020000040800F2
:10000000E00E00204D0200088D1D0008211B000895
:10001000891D00084504000855280008000000005C
:10002000000000000000000000000000951D000816
:100030005504000800000000911D0008991D0008EB
:1000400067020008670200086702000867020008EC
:1000500067020008670200086702000867020008DC
:1000600067020008670200086702000867020008CC
:1000700049040008670200086702000867020008D8
:1000800067020008670200086702000867020008AC
:10009000670200086702000867020008670200089C
:1000A000670200086702000867020008670200088C
:1000B000670200086702000867020008670200087C
:1000C000670200086702000867020008670200086C
:1000D000670200086702000867020008670200085C
:1000E000670200086702000867020008670200084C
:1000F000670200086702000867020008670200083C
:10010000670200086702000867020008670200082B
:10011000670200086702000867020008670200081B
:10012000670200086702000867020008670200080B
:1001300067020008670200086702000867020008FB
:1001400067020008670200086702000867020008EB
:1001500067020008670200086702000867020008DB
:1001600067020008670200086702000867020008CB
:10017000670200086702000867020008000000002C
:1001800067020008670200086702000867020008AB
:10019000670200086702000867020008670200089B
:1001A00067020008670200086702000800F002F812
:1001B00000F03CF80AA090E8000C82448344AAF1C5
:1001C0000107DA4501D100F031F8AFF2090EBAE8C3
:1001D0000F0013F0010F18BFFB1A43F0010318477B
:1001E000A02B0000C02B0000103A24BF78C878C1B3
:1001F000FAD8520724BF30C830C144BF04680C602D
:10020000704700000023002400250026103A28BF74
:1002100078C1FBD8520728BF30C148BF0B60704778
:100220001FB502F08FFD1FBD10B510BD00F0D0F856
:100230001146FFF7F5FF02F06DFB00F0EEF803B496
:10024000FFF7F2FF03BC00F0F5F800000948804713
:1002500009480047FEE7FEE7FEE7FEE7FEE7FEE7A8
:10026000FEE7FEE7FEE7FEE704480549054A064BC0
:10027000704700004D1E0008AD010008E008002096
:10028000E00E0020E00A0020E00A002053EA020C01
:1002900000F069802DE9F04B4FF00006002B1FBFE6
:1002A000B3FA83F503FA05F424FA05F65E4012BFAB
:1002B0001643B2FA82F502FA05F4C5F120051EBF15
:1002C00022FA05FC44EA0C04203556EA044C4FEAB5
:1002D000144418BF641C4FF000084FF0000990420E
:1002E00071EB030C39D3002919BFB1FA81F701FA78
:1002F00007F6B0FA80F700FA07F6C7F120071EBF2D
:1003000020FA07FC46EA0C062037B6FBF4FCA7EB04
:100310000507103F07F01F0BCBF120062CFA06F65D
:100320000CFA0BFB44BFB3460026202FA4BF5E4649
:100330004FF0000B5BEA060C08BF4FF0010B19EB06
:100340000B0948EB0608ABFB027C06FB02CC0BFB5F
:1003500003CCC01B71EB0C01C1E70B4602464146C2
:100360004846BDE8F08B13B5084318BF4FF0FF3087
:100370000146AFF30080BDE81C4070474FF000021B
:1003800000B5134694469646203922BFA0E80C508B
:10039000A0E80C50B1F12001BFF4F7AF090728BF66
:1003A000A0E80C5048BF0CC05DF804EB890028BFE2
:1003B00040F8042B08BF704748BF20F8022B11F00B
:1003C000804F18BF00F8012B704770477047704787
:1003D000754600F02BF8AE4605006946534620F0FE
:1003E0000700854618B020B5FFF73EFFBDE8204066
:1003F0004FF000064FF000074FF000084FF0000BE1
:10040000AC46ACE8C009ACE8C009ACE8C009ACE84F
:10041000C00921F007018D46704710B50446AFF3BF
:1004200000802046BDE81040FFF709BF0048704734
:100430001000002001491820ABBEFEE72600020094
:1004400070470000FEE7000040F2F010C2F200002A
:1004500000F008B870470000EFF3108072B600BFDC
:10046000FEE70000F0B581B004460020009040F2A5
:100470000800C2F200000268D4E9166048F2B51321
:1004800037680821C1F64E3381403942A2FB03256B
:100490000CD0226813685B0708D5136823F00403A7
:1004A0001360B160616D41F001016165012181401E
:1004B000394208D022685269120604D5B160616DD4
:1004C00041F00201616504218140394208D022686F
:1004D0001268920704D5B160616D41F00401616555
:1004E00010218140394217D020680268120713D5C5
:1004F000B16002680168520308D4C90508D40168D4
:1005000021F008010160216C21B905E008033FD406
:10051000216C09B120468847E16D202000FA01F2E4
:100520003A4241D020680368DB063DD5B26094F8BA
:1005300035300268052B1BD122F016020260426999
:1005400022F080024261226C0AB9A26C1AB10268E0
:1005500022F0080202603F208840B060012084F849
:100560003500216D0020002984F8340052D157E075
:100570000168520310D4C90512D4016821F010019A
:100580000160012084F83500002084F8340007E081
:10059000A16C0029BED1BFE7080301D4616C00E063
:1005A000E16B09B120468847606DC8B3606DC00734
:1005B0002ED0052084F835002068A90A026822F0B0
:1005C00001020260009A01328A4200921AD802683F
:1005D000D20717D0009A01328A42009212D80268DC
:1005E000D2070FD0009A01328A4200920AD80268DC
:1005F000D20707D0009A01328A42009202D80268DC
:10060000D207DFD1012084F83500002084F83400BF
:10061000E16C29B1204601B0BDE8F040084700BFB9
:1006200001B0F0BD2DE9F041044600F069FB002C5B
:100630004ED00546022084F835000020216884F859
:100640003400086820F0010008600868C00708D07E
:1006500000F056FB401B05286CD821680868C007CD
:10066000F6D1086848F23F02CFF21002D4E9013512
:10067000024004F10C0E9EE8C1511A432A43104374
:100680003043384340EA0800626A40EA0C00042A1A
:1006900040EA0E0320D1D4E90A5E206B4EEA030241
:1006A000104308604869BEF1000F20F0030040EAE3
:1006B000050040F0040C15D0B8F5005F42D0B8F149
:1006C000000F51D1022D52D0012D47D055B94EE027
:1006D0000120BDE8F08100BF0B60486920F00700F1
:1006E00040EA020C6FF00F004AF6AB2250FA81F09C
:1006F000CAF6AA22A0FB02231A0942F67653C0F6D4
:1007000000039A5C40F2FF335F284FF03F00C1F8CE
:1007100014C021EA030100FA02F088BF0431C4E9E1
:1007200016128860002301220020636584F83520BA
:10073000BDE8F081032220230320636584F835207F
:10074000BDE8F081032DCDD8012240230120DFE850
:1007500005F0030E030500BFE7E700BFAEF1C07070
:10076000B0FA80F0400904E0032D04D3BAD1CEF3EF
:1007700000600028B6D0012240230120636584F880
:100780003520BDE8F0810000B0B5044600F0B8FAAD
:10079000054640F20000C2F200000078611C18BF5C
:1007A000044400BF00F0ACFA401BA042FAD3B0BD35
:1007B00070B582B0002843D00446D0F8840028B930
:1007C0002320C4F88400204600F022F90020019084
:1007D00043F64400C4F2020001684FF4805641F42D
:1007E00080410160006800F480400190019843F668
:1007F0000400C4F20100016821F4000101602168D5
:10080000A26803681A4302600068885940F001003A
:10081000885100F075FA054620688159C90713D040
:1008200000F06EFA401BB0F5FA7FF5D90120E02206
:100830000421C4F88810C4F8842002B070BD00BF41
:10084000012002B070BD00BF016848F20F12CFF660
:100850002072114001F59C41016005680120FFF7FD
:1008600093FF20684FF64172056081691140803125
:10087000816185690120FFF787FF206841F2180137
:100880008561425843F62373CFF6DE031A4042F0E7
:10089000087242F00402425045580120FFF774FFED
:1008A000206800F580518D6142F280014FF480553F
:1008B000C0F2C121415146590120FFF765FF206870
:1008C000E26800214651116051609160D160A261DF
:1008D000136800F5805C43F48013136002F1280371
:1008E000D360166844F2F45546F4400616609162EF
:1008F000D16211635163E361936A43F4801393629D
:1009000002F150035363966A46F4400696621165FD
:1009100051659165D1652362136D43F480131365AE
:1009200002F17803D365166D46F4400616659167AB
:10093000D167C2F88010C2F884106362936F43F4E9
:1009400080139367C2F88420936F43F44003936746
:10095000A162CCF8102022694FF000431160516071
:100960009160D160C2E9081113605560566826F0A5
:100970000046566002F12806A264D6609162D162F8
:1009800011635163C2E912119362D562D06A20F0FB
:100990000040D06202F15000E66450631165516579
:1009A0009165D165C2E91C1113655565566D26F038
:1009B00000465665206502F17800D0659167D167E1
:1009C000C2F88010C2F88410C2E926119367D56777
:1009D000D36F23F00043D3676065C2F8842021669B
:1009E000C4E91A11C4E91611CCF80C20606848F269
:1009F00040038288C4F202031A6000681022586023
:100A00000020C4F88810C4F8842002B070BD000033
:100A10002DE9F04385B0006848F20001C4F20201FC
:100A2000884203D005B0BDE8F08300BF002643F63E
:100A300030000096C4F202000168002441F0007109
:100A400001600168C4F2020401F000710091009994
:100A5000009601686D4641F08061016001684FF0C9
:100A6000020801F0806100910099009601684FF042
:100A7000030941F00061016001680B2701F000618A
:100A8000009100990096016841F00401016001683D
:100A900001F00401009100990096016841F0010104
:100AA0000160016801F00101009100990096016860
:100AB00041F002010160016801F00201009100991A
:100AC0000096016841F0400101600068294600F08D
:100AD0004000009000983220009004F50060CDE9BD
:100AE0000186CDF80C90049700F026F88620CDE919
:100AF000000820462946CDE90269049700F01CF859
:100B00004FF40050CDE9000804F580602946CDE996
:100B10000269049700F010F84FF42050CDE9000866
:100B200004F5C0502946CDE90269049700F004F8A5
:100B300005B0BDE8F08300002DE9F04F82B000F170
:100B40003E4242F2004502F1FF77C4F202050A225A
:100B50004FEAB726A84208BF0922092E38BF4FEA3C
:100B6000B7224FF0010A002400274FF0000800923E
:100B700008E000BF023708F10108202F04F1040447
:100B800000F0B4800E680AFA08F916EA090FF1D0ED
:100B9000D1F804A00AF0030BABF10106012E17D81F
:100BA0000322866802FA07FECA6826EA0E06BA40E1
:100BB000324382604268CAF3001522EA090205FA4C
:100BC00008F54FEA480C6FEA0E062A4342600BE034
:100BD0000322BA40D643BBF1030FBC4604D1BC4646
:100BE0004FF0030B22E000BFC2688D68324005FA67
:100BF0000CF52A43BBF1020FC26017D16FF003025C
:100C000002EA5802024404F01C030F25D2F820E047
:100C100005FA03FA0D692EEA0A0E05FA03F343EA10
:100C20000E031362D1F804A00AF0030B02680BFA5A
:100C30000CF332401A431AF4403F4FF0010A0260AD
:100C400098D0002243F644030192C4F202031A68CA
:100C500043F6004E42F480421A601A68C4F2010E54
:100C600002F480420192019A28F003024FF6084CE8
:100C70007244CFF6FF7C52F80C3004F00C060F25BE
:100C8000B540AB43009D05FA06F6334342F80C30FD
:100C9000DEF808204B6842EA090643F60C4CDD02F8
:100CA00058BF22EA0906CEF80860C4F2010CDCF84D
:100CB00000209D0242EA090658BF22EA0906CCF844
:100CC0000060DEF804209D0342EA090658BF22EACC
:100CD0000906CEF80460DEF80020DB0342EA0906CC
:100CE00058BF22EA0906CEF8006043E702B0BDE82B
:100CF000F08F0000002A08BF0904816170470000DE
:100D000040F6DC00C2F200000068704740F20000CC
:100D100040F6DC01C2F20000C2F2000100780A686D
:100D2000104408607047000080B543F60040C4F2EC
:100D30000200016841F400710160016841F48061C2
:100D40000160016841F480710160032000F084F8C3
:100D5000002000F005F800F027F8002080BD00001A
:100D600070B540F20006C2F2000640F20801327887
:100D7000C2F200014FF47A730968B3FBF2F2044641
:100D8000B1FBF2F1084600F023FC0F2C4FF00105F7
:100D900008D838B94FF0FF3021460022002500F076
:100DA0002FF87460284670BD82B0002043F64001E1
:100DB0000190C4F202014A6842F480424A604A68E3
:100DC00002F480420192019A0090086840F080503D
:100DD0000860086800F080500090009802B07047EA
:100DE000002848BF704700F01F01012202FA01F1FC
:100DF0004EF200124009CEF2000242F82010704775
:100E000010B54EF60C5CCEF2000CDCF80030C3F3EB
:100E1000022E8EF00704042C28BF0424BEF1030325
:100E20004FF0FF3E0EFA04F438BF0023A14399406F
:100E30000EFA03F39A43114300F00F02043A62449E
:100E400009010C3200F16043B0F1FF3FC8BF03F568
:100E50006442117010BD00004EF60C51CEF200013C
:100E60000A684FF6FF031A4060F30A2242F08060DE
:100E700040F0FD70086070472DE9F04F8BB00028FE
:100E800000F086800446056890F8BD0428B900206B
:100E900084F8BC04204600F08FF8032084F8BD04D9
:100EA000E86BC0055CBF00202061206801F098FC61
:100EB000206804F11C0A0A90D4E90C5004F1040ED5
:100EC0009AE8C0079EE80E58CDE9085003A880E8CC
:100ED000C0030A988DE80058CDF81CA001F03EF937
:100EE000002852D120680021002501F081FC6168B2
:100EF00061B301200023002203EBC30304EB83074B
:100F000087F83C20D3B20132A7F84430D3B29942DB
:100F100087F83D0087F84050C7E912557D65EBD84A
:100F200000200023002200BF03EBC30304EB830770
:100F300087F87C220132D3B2994287F87D0287F884
:100F40008002C7E9A200C7F89402EDD8A068226821
:100F50000A90D4E90C5004F1140E04F1240AD4E9E7
:100F600003379EE840589AE80007CDE9085002A8E8
:100F700080E8005810460A9ACDE90076CDE9058947
:100F8000CDF81CA001F0EAF940B1022084F8BD04BC
:100F9000012528460BB0BDE8F08F00BF00250120D9
:100FA00084F8385084F8BD04206801F0C7F9284659
:100FB0000BB0BDE8F08F0000F0B587B00068B0F16D
:100FC000A04F01D007B0F0BD002743F630060297CE
:100FD000C4F202063068002440F00100306030683E
:100FE000C4F2020400F00100029002984FF4E850AD
:100FF00002900220CDE90307032005900A2002ADEC
:10100000069020462946FFF797FD4FF40070CDE982
:101010000207204629460497FFF78EFD706840F0CE
:10102000800070600197706940F480407061706961
:1010300000F480400190019807B0F0BD2DE9F04127
:10104000002800F08B8043F60808C4F2020804462A
:10105000D8F8F8030D4600F00F00884207D288F850
:10106000F853D8F8F80300F00F00A84276D12068B2
:10107000810717D5410705D5D8F8001041F4E05194
:10108000C8F80010010705D5D8F8001041F46041F8
:10109000C8F80010D8F80010A26821F0F001114340
:1010A000C8F80010C0073FD1D8F8F80300F00F00CF
:1010B000A84207D988F8F853D8F8F80300F00F00D1
:1010C000A8424BD12068410707D5D8F80010E26844
:1010D00021F4E0511143C8F80010000708D5D8F8F2
:1010E0000000216920F4604040EAC100C8F8000017
:1010F00000F07CF8D8F8001042F65E52C1F30311FC
:10110000C0F60002515C40F2080220FA01F140F200
:101110000400C2F200000068C2F200021160FFF792
:101120001FFE0020BDE8F0816068811E022907D201
:1011300058F8081C89015CBF0120BDE8F08111E06E
:10114000012807D158F8081C89035CBF0120BDE8BD
:10115000F08107E058F8081C890703D40120BDE896
:10116000F08100BFD8F8001021F003010843C8F84F
:101170000000FFF7C5FD064641F28837D8F80000A9
:10118000616800F00C00B0EB810F8DD0FFF7B8FD67
:10119000801BB842F2D90320BDE8F08140F208007C
:1011A00043F60801C2F20000C4F2020100680968B7
:1011B00042F66E52C1F38221C0F60002515CC84073
:1011C0007047000040F2080043F60801C2F2000038
:1011D000C4F202010068096842F66E52C1F342315E
:1011E000C0F60002515CC8407047000010B543F6DD
:1011F0000404C4F20204606800F00C0142F20040F2
:101200000829C0F2F40007D0042918BF10BD41F22C
:101210000020C0F27A0010BD216801F03F02216871
:1012200023684902C3F3881106D4A1FB00010023FF
:10123000FFF72CF807E000BF41F20020C0F27A006F
:101240004843B0FBF2F021680222C1F3014102EBF6
:101250004101B0FBF1F010BD2DE9F04182B0002852
:101260006AD00446007843F60006C007C4F20206BE
:101270000BD0B06800F00C00042840F0A18030686A
:10128000800302D56068002856D0207880071AD5E0
:10129000B06810F00C0F09D0B06800F00C000828FE
:1012A00040F0A8807068400200F1A4803068800798
:1012B00002D5E06801283FD13068216920F0F800AC
:1012C00040EAC10030602078000739D42078400718
:1012D0004ED4A5695DB3B06800F00C00082840F05A
:1012E000BD80012D28D07068E16900F480028A4237
:1012F00022D1216A00F03F028A421DD147F6C07117
:10130000626A0140B1EB821F16D1A26A0023CFF6B8
:10131000FF7303EBC23200F440316FF30F029142CE
:101320000AD1E16A00F07060B0EB016F04D10020D7
:1013300002B0BDE8F08100BF012002B0BDE8F0813D
:101340006069002840F20000C4F2472076D00121F5
:10135000C0F8801EFFF7D4FC054600BF706F800701
:10136000B4D4FFF7CDFC401B0228F7D9DDE000BF65
:10137000306C10F080580AD100200190306C40F0A1
:1013800080503064306C00F080500190019847F23A
:101390000007C4F200073868C00541D4386840F43B
:1013A00080703860FFF7ACFC054600BF3868C005A8
:1013B00036D4FFF7A5FC401B0228F7D9B5E000BFE3
:1013C000B06800F00C00082803D1706840023FF5B7
:1013D00056AF6068B0F5803F07D0B0F5A02F40F061
:1013E0008D80306840F480203060306840F4803078
:1013F00030608DE0E068002852D00020C4F2472021
:1014000001210160FFF77CFC054600BF30688007C2
:101410003FF552AFFFF774FC401B0228F6D984E079
:10142000A068012805D005284ED1306F40F0040097
:101430003067306F40F0010030674FE00021C0F8A6
:10144000801EFFF75DFC0546706F80077FF53EAF9D
:10145000FFF756FC401B0228F6D966E00027C4F2CD
:10146000472700203866FFF74BFC022D05460BD1BD
:10147000306880015ED5FFF743FC401B02284FF027
:101480000300F5D954E700BF306880017FF54FAF06
:10149000FFF736FC401B02284FF00300F4D947E762
:1014A0000020C4F2472000210160FFF729FC054617
:1014B000306880077FF507AFFFF722FC401B02284A
:1014C0004FF00300F4D933E7316F002821F0010118
:1014D0003167316F21F0040131674DD0FFF710FC07
:1014E000054641F2883700BF306F800756D4FFF7BA
:1014F00007FC401BB842F7D917E000BF316800284D
:1015000021F480313160316821F4802131604FD085
:10151000FFF7F6FB054600BF306880033FF5B5AE28
:10152000FFF7EEFB401B6428F6D9032002B0BDE8AC
:10153000F08100BF04F11C052FCD08430021CFF638
:10154000FF7140EA821001EBC3316FF30F0140EAF3
:1015500005600843706001203866FFF7D1FB044640
:10156000306880013FF5E3AEFFF7CAFB001B02289D
:101570004FF00300F4D9DBE6FFF7C2FB054641F26A
:10158000883700BF306F800708D5FFF7B9FB401BD5
:10159000B8424FF00300F5D9CAE600BFB8F1000F1A
:1015A0007FF497AE306C20F08050306491E600BF3D
:1015B000FFF7A6FB054600BF306880037FF565AEE8
:1015C000FFF79EFB401B64284FF00300F4D9AFE601
:1015D000411E0020B0EB116F1CBF012070474EF27E
:1015E0001002CEF2000251604EF62351CEF20001FD
:1015F000F0230B70072190601160704710B590F8D0
:101600003C20012A4FF0020251D080F83D200268B0
:10161000D2F804E0D2F808C00C682EF0700323431F
:1016200041F2FF74C4F20004A24253600EDC40F2A7
:10163000FF73C4F200039A4216DCB2F1804F2BD044
:1016400040F20043C4F2000324E000BF40F2FF3345
:10165000C4F201039A4213DC41F60003C4F2000312
:101660009A4219D0002313E040F60003C4F20003AD
:101670009A4211D040F60043C4F200030AE000BFD2
:1016800044F20003C4F201039A4205D040F2004341
:10169000C4F201039A4204D149682CF08003194333
:1016A00091600121002280F83D1080F83C20104616
:1016B00010BD0000002804BF0120704710B504468B
:1016C00090F83D0028B9002084F83C00204600F046
:1016D0001FF8022084F83D002068211D00F0C0FBA7
:1016E000012084F8460084F83E0084F83F0084F826
:1016F000400084F8410084F8420084F8430084F8F4
:10170000440084F8450084F83D00002010BD00002E
:1017100081B00068B0F1804F02D001B0704700BFC7
:101720000020009043F64000C4F20200016841F03E
:1017300001010160006800F001000090009801B014
:1017400070470000B0B5044690F83C0001284FF007
:10175000020008BFB0BD012584F83C5084F83D006C
:10176000206800F01BFC00284FF0010006D000218B
:1017700084F83D5084F83C10B0BD00BF2068C168BB
:1017800021F04001C160C16821F48041C1600020A6
:10179000002184F83D5084F83C10B0BD002804BFFF
:1017A0000120704710B5044690F83D0028B900208C
:1017B00084F83C00204600F021F8242084F83D0005
:1017C0002068C16821F40051C160204600F054FC3B
:1017D0002068016921F490410161416921F02A01E9
:1017E0004161C16841F40051C160002020212064A2
:1017F00084F83D1084F83E1010BD00002DE9F04340
:1018000087B00446006844F60001C4F200010026D7
:101810008842CDE90566CDE9036602964CD044F6D0
:101820000041C4F20001884240F08E80002643F659
:1018300030000196C4F202000169002441F4002145
:1018400001610169C4F2020401F4002101910199CE
:101850000196016802AD41F00101016001684FF09D
:10186000020801F0010101910199019601684FF010
:10187000030941F0040101600068082700F004003A
:10188000019001980120029020462946CDE9038667
:10189000CDF814900697FFF74FF94FF40060CDE9AB
:1018A000020804F500602946CDE904690697FFF7B0
:1018B00043F907B0BDE8F08343F630000196C4F267
:1018C0000200016941F480210161016901F4802174
:1018D000019101990196016841F0080101600068D9
:1018E00002A900F00800019001984FF440700290A6
:1018F0000220CDE903060320059007200690002072
:10190000C4F2020000F54060FFF716F940F2F0154E
:1019100046F22800C2F20005C4F202004FF0006156
:101920004FF4806285E843002846C5E90362C5E9B3
:101930000566C5E907666E62FEF774FE002818BFEB
:10194000FEF78AFDA563AC6307B0BDE8F083000035
:101950002DE9F04381B0044690F83E0020280DD1D7
:101960000E4600294FF0010000F0D6801746002AED
:1019700000F0D28094F83C00012803D1022001B08D
:10198000BDE8F083012084F83C004FF000092220DC
:101990001D46C4F8409084F83E00C4F83090FFF72C
:1019A000AFF9A785E785A1680746B1F5805F0BD140
:1019B000206900281CBF30464E46B046064684F8D3
:1019C0003C90E08D40B9A3E04FF0000884F83C90D3
:1019D000E08D002800F09C8005F101090DE000BFBA
:1019E000406800266FF35F2028F8020BE08D013875
:1019F000E085E08D002800F08B8020680168890672
:101A00000ED4B9F1000F19D055B300BFFFF778F924
:101A1000C01BA84224D8206801688906F6D500BFFB
:101A2000002EDDD0A168B1F5805F15D009B921691C
:101A300091B1406800F07F000FE000BF01688906A7
:101A4000EED4016889065CBF01685FEA8161E7D472
:101A500001688906F2D5E3E7406806F8010BC5E79F
:101A6000206850E8030F216820F4D07041E8030299
:101A7000E2B1206850E8030F216820F4D07041E8FB
:101A800003029AB1206850E8030F216820F4D07057
:101A900041E8030252B1206850E8030F216820F4A6
:101AA000D07041E80302002ADAD100BF206850E874
:101AB000050F216820F0010041E80502DAB1206835
:101AC00050E8050F216820F0010041E8050292B1BD
:101AD000206850E8050F216820F0010041E8050268
:101AE0004AB1206850E8050F216820F0010041E864
:101AF0000502002ADAD1202084F83D0084F83E0057
:101B0000002084F83C00032001B0BDE8F08300BF52
:101B1000202084F83E00002001B0BDE8F0830000E2
:101B2000FEE7000010B541F20004C4F202042046B2
:101B30004FF480510022FFF7DDF820464FF480413A
:101B40000022FFF7D7F84FF47A70FEF71DFE03204E
:101B5000032100F095F80320022100F091F8022003
:101B6000082100F08DF80020082100F089F80020FD
:101B7000012100F085F80020062100F081F8002006
:101B80000F21BDE8104000F07BB800002DE9F041C6
:101B900041F20004C4F20204804620464FF4805112
:101BA0000022FFF7A7F820464FF480410122FFF7FB
:101BB000A1F820464FF480610122FFF79BF85FFAFD
:101BC00088F504F50067EA0938464FF48041FFF7CD
:101BD00091F804F58066C5F3801230464FF4004159
:101BE000FFF788F8C5F3401220464FF40051FFF785
:101BF00081F8C5F3001230464FF48041FFF77AF8C0
:101C000020464FF480610022FFF774F800F024FEB4
:101C100020464FF480510022FFF76CF820464FF425
:101C200080410122FFF766F820464FF480610122CF
:101C3000FFF760F8C5F3C00238464FF48041FFF764
:101C400059F8C5F3800230464FF40041FFF752F8CF
:101C5000C5F3400220464FF40051FFF74BF808F05F
:101C6000010230464FF48041FFF744F820464FF41C
:101C700080610022FFF73EF8BDE8F04100F0ECBDC6
:101C80002DE9F04381B041F20004C4F20204884619
:101C9000054620464FF480410022FFF72BF82046EE
:101CA0004FF480510022FFF725F8EFB204F50069E8
:101CB000C7F3C00248464FF48041FFF71BF804F514
:101CC0008066C7F3800230464FF40041FFF712F8F8
:101CD000C7F3400220464FF40051FFF70BF805F020
:101CE000010230464FF48041FFF704F820464FF4DC
:101CF00080610122FEF7FEFF20464FF48061002242
:101D0000FEF7F8FF4FF47A70FEF73EFD20464FF4E1
:101D100080410022FEF7EEFF20464FF48051002262
:101D2000FEF7E8FF5FFA88F5C5F3C00248464FF4B6
:101D30008041FEF7DFFFC5F3800230464FF40041DB
:101D4000FEF7D8FFC5F3400220464FF40051FEF7DE
:101D5000D1FF08F0010230464FF48041FEF7CAFF80
:101D600020464FF480610122FEF7C4FF20464FF465
:101D700080610022FEF7BEFF4FF47A7001B0BDE82B
:101D8000F043FEF701BD0000FEE70000FEE70000A3
:101D90007047000070470000FEF7B8BFB0B592B0C2
:101DA000002443F64000CDE90A44CDE908440594F7
:101DB000CDE90344CDE901440094C4F20200016876
:101DC000022541F080510160006800F080500090D1
:101DD000009847F200000094C4F20000016841F44A
:101DE00040410160006800F44040009000980120EC
:101DF00006904FF4A02007904FF480000D9004202F
:101E00000E90A820CDE90F050720119006A80C958B
:101E1000FFF722FA20B1EFF3108072B6FEE700BFA1
:101E20000F20CDE901054FF4A05004904FF48050ED
:101E3000059001A805210394FFF700F920B1EFF305
:101E4000108072B6FEE700BF12B0B0BD4EF68850EB
:101E5000CEF20000016841F470010160704700009B
:101E600010B540F6FF3E0368C4F2000E40F2004C8D
:101E70007045C4F2010C27DCB0F1804F31D040F244
:101E80000042C4F2000290422BD040F60002C4F29D
:101E90000002904225D041F6FF72C4F20002904247
:101EA00029DC70453CDCB0F1804F5FD040F200424D
:101EB000C4F20002904259D040F60002C4F200027F
:101EC000904253D056E000BF40F60042C4F20002F8
:101ED000904206D0604504D00022C4F20102904234
:101EE000D9D14A6823F07003134341F6FF72C4F25C
:101EF00000029042D5DD43F6FF72C4F20102904227
:101F000022DC42F20002C4F2000290422ED00022F3
:101F1000C4F20102904229D0604527D02AE000BFD8
:101F200040F60042C4F2000290421FD041F6000287
:101F3000C4F20002904219D041F60042C4F20002FD
:101F4000904213D016E000BF44F20002C4F2010236
:101F500090420BD044F60002C4F20102904205D038
:101F600044F20042C4F20102904203D1CA6823F451
:101F70004073134323F080024B69D1F800E08C6872
:101F80001A430260C46240F48062C0F828E06245EF
:101F900004BF096901630121416110BD80B58268F8
:101FA000D1E900E322F0770C23F0070242EA0C02A9
:101FB00042EA0E0C4FEA3312072AC0F808C009D8CB
:101FC0004FF0000CDFE802F0040404040A1E344A57
:101FD000604680BD4FF0010C604680BDBEF1050F2C
:101FE00004BF012080BD026A036A23F0010303627B
:101FF0008369096923F0F00343EA011181610262F8
:10200000002080BDD1F808C00969036A026A22F085
:1020100001020262826922F0F00242EA011123F019
:102020000A0242EA0C0281610262002080BD00BF08
:10203000D1F808C00969036A23F0100303628369B9
:10204000026A23F4704322F0A00243EA013142EA1B
:102050000C1281610262002080BD00BFD1E902C381
:102060000969826843EA0C0322F47F4243EA0121B2
:1020700011438160002080BD10B504460068D4E99A
:1020800002C22369016921F440511143016162696F
:1020900043EA0C01E3691143C268194349F20C6336
:1020A0009A431143C1604169A26921F4407141F230
:1020B0000043114340F48062C4F201039A4241613B
:1020C00002D1FFF77FF801E0FFF768F8E169636884
:1020D0001922B1F5004FA0FB02011FD15A00DB0FFE
:1020E000FEF7D4F848F21F51C5F2EB11A0FB012313
:1020F0005A096FF0630302FB0300322303EBC000B5
:10210000A0FB01014FF4F87000EA111000EB02107F
:10211000C1F3421108442168886010BD9A009B0FEA
:10212000FEF7B4F848F21F51C5F2EB11A0FB0123F2
:102130005A096FF0630302FB0300322303EB001024
:10214000A0FB0101F02000EA511000EB0210C1F3E6
:10215000431108442168886010BD000082B00499D2
:10216000DDF808C0012940F64051C0F203016FD1EB
:10217000826B4FF6BF7322F480328263C268CFF65F
:10218000BD731A40C260C2680B9B22F44012012B3F
:10219000C26003D1C26842F48012C2600022009281
:1021A000009A01320092009A8A4200F2A9800269E4
:1021B000002A1ED4009A01320092009A8A4200F24C
:1021C0009F800269002A14D4009A01320092009A7A
:1021D0008A4200F295800269002A0AD4009A0132EC
:1021E0000092009A8A4200F28B800269B2F1FF3FAE
:1021F000D6DC00220092026942F001020261009ADC
:1022000001320092009A8A427AD80269D2071AD023
:10221000009A01320092009A8A4271D80269D2076C
:1022200011D0009A01320092009A8A4268D802695D
:10223000D20708D0009A01320092009A8A425FD8F1
:102240000269D207DBD10021BCF1010F72D169E034
:10225000C268089B42F04002C26000220192019ACB
:1022600001320192019A8A4250D80269002A1BD495
:10227000019A01320192019A8A4247D80269002AE2
:1022800012D4019A01320192019A8A423ED802691F
:10229000002A09D4019A01320192019A8A4235D862
:1022A0000269B2F1FF3FDADC00220192026942F0DA
:1022B00001020261019A01320192019A8A4225D8F3
:1022C0000269D2071AD0019A01320192019A8A4218
:1022D0001CD80269D20711D0019A01320192019AE9
:1022E0008A4213D80269D20708D0019A01320192BA
:1022F000019A8A420AD80269D207DBD1002106E09E
:102300000321BCF1010F15D10CE000BF0321826B4A
:10231000002B14BF22F4803242F480328263BCF17D
:10232000010F07D1826842F006028260826842F0A3
:1023300020028260084602B0704700000146D0F8D3
:10234000000E20F00300C1F8000ED1F8040840F0A0
:1023500002020020C1F80428704700002DE9F04F68
:1023600083B0DDF84CE00E9F0022BEF1000FC0F8F4
:102370000421C0F80821C0F80C21C0F81021C0F8D1
:102380001421C0F81821C0F81C21C0F82021C0F881
:102390002421C0F82821C0F82C21C0F83021C0F831
:1023A0003421C0F83821C0F83C210BD0826B00F5F5
:1023B000006A22F400128263826B42F4002282637C
:1023C00014E000BFD0F8042800F5006A42F00202D1
:1023D000C0F80428826B42F400128263826B22F4FC
:1023E00000228263866B26F4802686630026C0F86E
:1023F000006EDAF80060012FCAF8006006D1DAF842
:102400000070002B18BF47F0010703E0DAF8003036
:1024100043F00307DDF83090DDF83C8040F640558E
:10242000C0F203050023CAF800700193019B013339
:102430000193019BAB4249D80369002B1BD4019B3C
:1024400001330193019BAB4240D80369002B12D4A6
:10245000019B01330193019BAB4237D80369002BE9
:1024600009D4019B01330193019BAB422ED8036930
:10247000B3F1FF3FDADC002301934FF4846303617F
:10248000019B01330193019BAB421FD803699B065B
:102490001AD5019B01330193019BAB4216D8036906
:1024A0009B0611D5019B01330193019BAB420DD8D3
:1024B00003699B0608D5019B01330193019BAB4245
:1024C00004D803699B06DBD4002400E00124002328
:1024D0000293029B01330293029BAB4248D80369EB
:1024E000002B1BD4029B01330293029BAB423FD8CB
:1024F0000369002B12D4029B01330293029BAB426F
:1025000036D80369002B09D4029B01330293029B46
:10251000AB422DD80369B3F1FF3FDADC002302930D
:1025200010230361029B01330293029BAB421FD82D
:102530000369DB061DD5029B01330293029BAB426C
:1025400016D80369DB0614D5029B01330293029B64
:10255000AB420DD80369DB060BD5029B0133029316
:10256000029BAB4204D80369DB06DBD401E000BF69
:1025700001244FF0000B0029CAF810B0CAF814B0BB
:10258000CAF81CB000F0FE8000F510673B684FF001
:10259000006505EA13134FF67F324E1E3B60C7F805
:1025A00010B0BA6073D08B1E032B06F003020094A8
:1025B00004D22024002A42D162E000BF26F00303A7
:1025C0004FF0000E4FF090484FF67F3C4FF000095F
:1025D00000EB0904D4F82059043B08EAE575C4F877
:1025E0002059C4F830E9C4F828C9D4F8405909F191
:1025F000800908EAE575C4F84059C4F850E9C4F800
:1026000048C9D4F8605908EAE575C4F86059C4F8B7
:1026100070E9C4F868C9D4F8805908EAE575C4F8C7
:102620008059C4F890E9C4F888C9D1D109F12004CF
:10263000DDF84CE0DDF83C80DDF8309002B33D5928
:102640004FF0904C0CEAE5753B193D5100244FF6D4
:102650007F37012A1C619F6012D01D6A022A0CEA92
:10266000E5751D621C639F620AD01F6C4FF0904598
:1026700005EAE7771F6400271F654FF67F379F64E1
:10268000009C00294FF67F324FF000657AD0D0F8D9
:10269000003B002E05EA1313C0F8003B4FF0000387
:1026A000C0F8103BC0F8082B6CD00239032906F0A3
:1026B000030C05D22023BCF1000F3ED162E000BF25
:1026C000009426F0030300274FF090464FF67F3426
:1026D000002100BF4518D5F8202B043B06EAE27222
:1026E000C5F8202BC5F8307BC5F8284BD5F8402B12
:1026F00001F1800106EAE272C5F8402BC5F8507B73
:10270000C5F8484BD5F8602B06EAE272C5F8602B95
:10271000C5F8707BC5F8684BD5F8802B06EAE272E5
:10272000C5F8802BC5F8907BC5F8884BD2D1009CAA
:1027300001F12003BCF1000F24D000F53062D6581F
:102740004FF0904707EAE676D118D65000264FF6AC
:102750007F33BCF1010F0E618B6013D00A6ABCF1AC
:10276000020F07EAE2720A620E638B620AD00A6CF9
:102770004FF0904303EAE2720A6400220A654FF6C2
:102780007F328A64DAF81010B9F1000F21F48071F9
:10279000CAF810106FF08041C0F818B0416103D141
:1027A000816941F010018161816943F60002C8F23C
:1027B0003C021143B8F1000F816103D0816941F0FF
:1027C00008018161BEF1010F05D1816941F08041AD
:1027D00041F004018161204603B0BDE8F08F0000A4
:1027E0000146806820F0010200208A6070470000E6
:1027F000B0B50446C06820F0C040E06091B1012946
:1028000026D1E068002540F00050E0600120FDF78F
:10281000BBFF6069C00705F1010014D1312D0546E9
:10282000F4D310E0E068002540F08040E06000BF95
:102830000120FDF7A9FF6069C00705F1010002D082
:10284000312D0546F4D33238B0FA80F04009B0BDDE
:102850000120B0BDFEE70000B0B541F20045C4F272
:102860000205A5F5806420464FF480510122FEF751
:1028700041FA20464FF480410022FEF73BFA2868D7
:102880004FF4806120F04050286020460122FEF77E
:1028900031FA2869400409D52869400444BF2869F1
:1028A0005FEA404002D528694004F2D420464FF444
:1028B00080610022FEF71EFA28684FF4805120F054
:1028C000405028602868002240F0805320462B604A
:1028D000BDE8B040FEF70EBAB0B50446093046F286
:1028E00067651328C6F2666506D354FB05F08110B0
:1028F00001EBD070FFF7F0FF54FB05F0811001EB06
:10290000D07000EB8000A4EB40003030BDE8B04058
:10291000FFF73CB988B041F20004C4F20204FEF7AC
:1029200003FAFFF73BFA002743F63005CDE90677B7
:102930000097C4F202052868A4F5406840F004003E
:102940002860286844F2810100F00400009000989B
:1029500000972868002240F080002860286844F230
:10296000810B00F08000009000980097286840F0EC
:1029700001002860286800F001000090009800978E
:10298000286840F002002860286800F002000090EB
:1029900000980097286840F020002860286800F020
:1029A0002000009000980097286840F010002860F0
:1029B000286800F01000009000980097286840F008
:1029C00008002860286800F0080000900098009730
:1029D000286840F040002860286800F0400000901F
:1029E00000984046FEF786F904F5806A50464FF499
:1029F00040410022FEF77EF920464FF4E8410022D4
:102A0000FEF778F904F50069484644F240010022D7
:102A1000FEF770F94FF4005003904FF4881003AEA6
:102A2000CDE90407A4F500603146FEF785F8CDF83E
:102A30000CB04FF0010B40463146CDE904B7069784
:102A4000FEF77AF84FF44040CDE9030B504631468B
:102A5000CDE90577FEF770F84FF4E840CDE9030BB8
:102A600020463146CDE90577FEF766F844F240008E
:102A7000CDE9030B48463146CDE90577FEF75CF812
:102A80008020CDE90307484631460597FEF754F804
:102A900003972868002140F400102860286800226D
:102AA00000F40010039003980C204FF00C08FEF780
:102AB000A7F90C20FEF794F940F2502048F2000CE0
:102AC00040F2700648F20002C2F20000C4F2020CAA
:102AD000C2F20006C0F2E10232604FF4000240F29E
:102AE000501340F2B00540F2F451C0E900C600F1C5
:102AF000080CB780C2F20003C2F200058CE82C007B
:102B00004161FDF755FE28B1EFF3108072B600BFAA
:102B1000FEE700BF06F10C003421FDF72FFC212059
:102B2000B0604FF44000F06140F65400A4F5E43189
:102B3000C2F200004FF4E13280E88600C0E903777A
:102B4000C0E90587C761FEF729FE28B1EFF31080C1
:102B500072B600BFFEE700BF40F20030C2F20000D4
:102B60004FF0A0410422C0E90012022100250122F9
:102B700000F11803C0E9031526C34562C0E90B251F
:102B8000FEF77AF920B1EFF3108072B6FEE700BFCE
:102B900040F60C00C2F200004FF080414FF0FF32CF
:102BA0000795CDE90555CDE90055C0E90015C0E907
:102BB000025205618561FEF77DFD28B1EFF31080BB
:102BC00072B600BFFEE700BF07200390002004900C
:102BD00040F60C00C2F2000003A9FEF7B3FD28B1D5
:102BE000EFF3108072B600BFFEE700BF40F60C00A6
:102BF000C2F200006946FEF701FD28B1EFF3108034
:102C000072B600BFFEE700BF40F69800A4F5E231BF
:102C1000C2F2000000230C274FF4E13280E80E00DE
:102C2000C0E90333C0E90573C361FEF7B7FD28B1FE
:102C3000EFF3108072B600BFFEE700BFFEF772FF31
:102C400008200021FFF71CF808200021FFF718F8E2
:102C500040F69808C2F2000803AF00BF404639466C
:102C600001224FF47A73FEF773FE9DF80C00FFF714
:102C700033FE20464FF480410022FEF73BF8204609
:102C80004FF480510022FEF735F848464FF480415A
:102C90000122FEF72FF850464FF400410022FEF7C4
:102CA00029F820464FF400510022FEF723F8504641
:102CB0004FF480410022FEF71DF820464FF480615A
:102CC0000122FEF717F820464FF480610022FEF73C
:102CD00011F84FF47A70FDF757FD20464FF480410C
:102CE0000022FEF707F820464FF480510022FEF73D
:102CF00001F848464FF480410022FDF7FBFF5046A3
:102D00004FF400410022FDF7F5FF20464FF400513B
:102D10000022FDF7EFFF50464FF480410022FDF7FF
:102D2000E9FF20464FF480610122FDF7E3FF2046D2
:102D30004FF480610022FDF7DDFF4FF47A70FDF75C
:102D400023FD8BE7F1EE100A4FF6FF71C0F2C031A0
:102D500020EA010040F04070E1EE100A70470000E8
:102D6000000000000000010203040607080900003B
:102D700000000102030400061016000610160000F1
:102D8000A02D00080000002010000000E80100084D
:102D9000B02D000810000020D00E00000402000832
:102DA00001000000100000000024F40000000000FA
:04000005080001AD41
:00000001FF
