:020000040800F2
:10000000080F00204D020008AD250008A5250008B6
:10001000A925000845040008752F0008000000000D
:10002000000000000000000000000000B5250008EE
:100030005504000800000000B1250008B92500089B
:1000400067020008670200086702000867020008EC
:1000500067020008670200086702000867020008DC
:1000600067020008670200086702000867020008CC
:1000700067020008670200086702000867020008BC
:1000800049040008670200086702000867020008C8
:10009000670200086702000867020008670200089C
:1000A000670200086702000867020008670200088C
:1000B000670200086702000867020008670200087C
:1000C000670200086702000867020008670200086C
:1000D000670200086702000871280008670200082C
:1000E000670200086702000867020008670200084C
:1000F000670200086702000867020008670200083C
:10010000670200086702000867020008670200082B
:10011000670200086702000867020008670200081B
:10012000670200086702000867020008670200080B
:1001300067020008670200086702000867020008FB
:1001400067020008670200086702000867020008EB
:1001500067020008670200086702000867020008DB
:1001600067020008670200086702000867020008CB
:10017000670200086702000867020008000000002C
:1001800067020008670200086702000867020008AB
:10019000670200086702000867020008670200089B
:1001A00067020008670200086702000800F002F812
:1001B00000F03CF80AA090E8000C82448344AAF1C5
:1001C0000107DA4501D100F031F8AFF2090EBAE8C3
:1001D0000F0013F0010F18BFFB1A43F0010318477B
:1001E000DC300000FC300000103A24BF78C878C131
:1001F000FAD8520724BF30C830C144BF04680C602D
:10020000704700000023002400250026103A28BF74
:1002100078C1FBD8520728BF30C148BF0B60704778
:100220001FB503F02DF81FBD10B510BD00F0D0F8BC
:100230001146FFF7F5FF02F09FFE00F0EEF803B461
:10024000FFF7F2FF03BC00F0F5F800000948804713
:1002500009480047FEE7FEE7FEE7FEE7FEE7FEE7A8
:10026000FEE7FEE7FEE7FEE704480549054A064BC0
:10027000704700006D260008AD0100080809002045
:10028000080F0020080B0020080B002053EA020C86
:1002900000F069802DE9F04B4FF00006002B1FBFE6
:1002A000B3FA83F503FA05F424FA05F65E4012BFAB
:1002B0001643B2FA82F502FA05F4C5F120051EBF15
:1002C00022FA05FC44EA0C04203556EA044C4FEAB5
:1002D000144418BF641C4FF000084FF0000990420E
:1002E00071EB030C39D3002919BFB1FA81F701FA78
:1002F00007F6B0FA80F700FA07F6C7F120071EBF2D
:1003000020FA07FC46EA0C062037B6FBF4FCA7EB04
:100310000507103F07F01F0BCBF120062CFA06F65D
:100320000CFA0BFB44BFB3460026202FA4BF5E4649
:100330004FF0000B5BEA060C08BF4FF0010B19EB06
:100340000B0948EB0608ABFB027C06FB02CC0BFB5F
:1003500003CCC01B71EB0C01C1E70B4602464146C2
:100360004846BDE8F08B13B5084318BF4FF0FF3087
:100370000146AFF30080BDE81C4070474FF000021B
:1003800000B5134694469646203922BFA0E80C508B
:10039000A0E80C50B1F12001BFF4F7AF090728BF66
:1003A000A0E80C5048BF0CC05DF804EB890028BFE2
:1003B00040F8042B08BF704748BF20F8022B11F00B
:1003C000804F18BF00F8012B704770477047704787
:1003D000754600F02BF8AE4605006946534620F0FE
:1003E0000700854618B020B5FFF73EFFBDE8204066
:1003F0004FF000064FF000074FF000084FF0000BE1
:10040000AC46ACE8C009ACE8C009ACE8C009ACE84F
:10041000C00921F007018D46704710B50446AFF3BF
:1004200000802046BDE81040FFF709BF0048704734
:100430003000002001491820ABBEFEE72600020074
:1004400070470000FEE7000040F26020C2F20000AA
:1004500000F022BB70470000EFF3108072B600BFBF
:10046000FEE7000070B581B00022009290F83C20B9
:10047000012A03D10221084601B070BD0E68012295
:100480000A2E80F83C2009D3B2B25200D0F800E026
:1004900012FA86F21E3A0EF10C0305E0D0F800E0E5
:1004A00006EB46020EF110034FF0070C1D680CFA24
:1004B00002F4A5431D608D681C6805FA02F2224310
:1004C0001A604968062905D801EB810105390EF14A
:1004D000340309E00C2901EB810187BF41390EF19A
:1004E0002C0323390EF130031F221C688A4024EAB2
:1004F000020242F2043C1A60C4F2010CB2B21C685F
:1005000002FA01F1ACF5417221439645196005D01C
:10051000002180F83C10084601B070BD1221112E58
:10052000C1F2000118BF8E423AD1DCF800208E42A1
:1005300022F48002CCF80020DCF8002042F4000213
:10054000CCF80020E4D140F20801C2F200010968B1
:100550004DF68362C4F21B32A1FB0212910C01EB37
:1005600081014900009100990029D1D000990139F9
:10057000009100990029CBD0009901390091009990
:100580000029C5D000990139009100990029BFD0F8
:1005900000990139009100990029E7D1B8E700BF1F
:1005A000122EB5D1DCF8001021F40001CCF80010B7
:1005B000DCF8001041F48001CCF80010A8E700003E
:1005C0000068C06C70470000002804BF012070471D
:1005D00010B50446006C00283ED0206CC00645D4FF
:1005E000206C41F202118843023042F2043120644F
:1005F000C4F20101086820F4403008600A6894E8F9
:1006000009101A43D4F810E00A604168012321F46C
:10061000807141604168C0F6007341EA0E2141607B
:10062000416821F040714160416841EA0C0141603C
:10063000816821F400618160E16882681143816012
:10064000A16A8268994222F070628260826813D146
:1006500022F0405119E000BF204600F065F800206C
:10066000606484F83C00206CC006B9D501200021EC
:1006700084F83C1010BD00BF11438160816821F0F7
:1006800040518160E16A826811438160816821F094
:10069000020181608168227E94F8203041EA4201A3
:1006A0008160416883B141F40061416041684EF26C
:1006B000000221F460414160616ACFF6FF72436835
:1006C00002EB4131194301E021F400614160C16A4C
:1006D00040F2000C21F47001C162E2696169CFF659
:1006E000F07CC36A0CEB02521A43C262826822F4A5
:1006F0000072826094F83020836843EA422282606C
:10070000826822F480628260826842EA812181608C
:1007100000206064216C012262F301012164002148
:1007200084F83C1010BD000080B586B042F2000194
:100730000068C4F20101002288420592049201D0AF
:1007400006B080BD43F630000092C4F20200436957
:1007500043F480734361436903F480730093009B07
:100760000092036843F001030360006800F0010099
:1007700000900098082001900320CDE9020201F5C5
:10078000604001A900F0F2FC06B080BD70B50446DF
:1007900000680D468268520544BF80685FEAC05019
:1007A00038D400F0C7FD21680A68920749D406468C
:1007B000681C3CD0DDB90868800721D5086880072F
:1007C0003FD4086880071BD50868800739D40868BB
:1007D000800715D50868800733D4086880070FD5CF
:1007E00008688007E7D52CE00868800729D400F066
:1007F000A1FD801B2168A842F6D908688007F3D4C0
:10080000206C40F004002064002084F83C000320A9
:1008100070BD00BF206C40F020002064002084F8F0
:100820003C00012070BD00BF0868800709D408683B
:10083000800706D4086880075CBF08685FEA80709C
:10084000F2D56FF012000860206C40F40070206454
:10085000886810F0405F01D1207E08B1002070BD93
:10086000C86A10F4700F02D088684005F6D4206C76
:1008700020F480702064206CC004EFD4206C40F021
:1008800001002064002070BD10B581B000210091EE
:1008900090F83C10012903D1022001B010BD00BF27
:1008A0000468012180F83C10214651F8083FDB071D
:1008B00029D10B684DF6836243F001030B6040F2CF
:1008C0000803C2F200031B68C4F21B32A3FB02231D
:1008D0009A0C02EB42020092009AA2B1009A013AED
:1008E0000092009A7AB1009A013A0092009A52B1AD
:1008F000009A013A0092009A2AB1009A013A0092B5
:10090000009A002AEAD10A68036CD2070AD143F0A0
:100910001001016400F1440101200A6810430860DD
:1009200056E000BF40F2017223EA020202F5807233
:1009300002646268520504D5026C012363F30D3230
:100940000264026C4FF0000E0023D20444BF426CDC
:1009500022F0060342F2043C436480F83CE06FF06E
:100960002200C4F2010C2060DCF80000C0060DD0AB
:10097000ACF5417084422BD14FF60450CFF6FF7096
:100980005CF8000010F0405F22D125E042F2000048
:10099000C4F20100844217D042F20020C4F20100E8
:1009A00084420DD042F20010C4F2010084420FD103
:1009B000DCF80000C00607D0ACF58270844207D195
:1009C000DCF80000C00603D4086810F0405F03D0D4
:1009D000002001B010BD00BF4FF080409DE7000037
:1009E00070B5866D044600F0A5FC94F83510022918
:1009F0002ED105462068216C026822F016020260A2
:100A0000426922F08002426109B9A16C19B1016802
:100A100021F008010160016821F001010160006816
:100A2000C00708D000F086FC401B052818D82068B5
:100A30000068C007F6D1E06D3F2101FA00F0B06018
:100A4000012084F835000020002184F8341070BDA6
:100A5000802060650120002184F8341070BD00BF43
:100A600020206065032084F83500002184F83410CC
:100A700070BD000090F83510022909D1052180F8D9
:100A800035100068016821F0010101600020704705
:100A90008021416501207047F0B581B004460020F7
:100AA000009040F20800C2F200000268D4E916602B
:100AB00048F2B51337680821C1F64E3381403942F8
:100AC000A2FB03250CD0226813685B0708D51368C6
:100AD00023F004031360B160616D41F001016165B1
:100AE00001218140394208D022685269120604D59A
:100AF000B160616D41F002016165042181403942BC
:100B000008D022681268920704D5B160616D41F087
:100B10000401616510218140394217D020680268C4
:100B2000120713D5B16002680168520308D4C905E1
:100B300008D4016821F008010160216C21B905E0A9
:100B400008033FD4216C09B120468847E16D20207D
:100B500000FA01F23A4241D020680368DB063DD535
:100B6000B26094F835300268052B1BD122F01602D2
:100B70000260426922F080024261226C0AB9A26CD2
:100B80001AB1026822F0080202603F208840B0607B
:100B9000012084F83500216D0020002984F83400FC
:100BA00052D157E00168520310D4C90512D401682C
:100BB00021F010010160012084F83500002084F844
:100BC000340007E0A16C0029BED1BFE7080301D4BF
:100BD000616C00E0E16B09B120468847606DC8B3E5
:100BE000606DC0072ED0052084F835002068A90A62
:100BF000026822F001020260009A01328A420092E9
:100C00001AD80268D20717D0009A01328A4200929D
:100C100012D80268D2070FD0009A01328A4200929D
:100C20000AD80268D20707D0009A01328A4200929D
:100C300002D80268D207DFD1012084F835000020F5
:100C400084F83400E16C29B1204601B0BDE8F040E1
:100C5000084700BF01B0F0BD2DE9F041044600F0A7
:100C600069FB002C4ED00546022084F83500002098
:100C7000216884F83400086820F0010008600868E2
:100C8000C00708D000F056FB401B05286CD821682F
:100C90000868C007F6D1086848F23F02CFF2100298
:100CA000D4E90135024004F10C0E9EE8C1511A430B
:100CB0002A4310433043384340EA0800626A40EA5E
:100CC0000C00042A40EA0E0320D1D4E90A5E206B0E
:100CD0004EEA0302104308604869BEF1000F20F09D
:100CE000030040EA050040F0040C15D0B8F5005FA1
:100CF00042D0B8F1000F51D1022D52D0012D47D072
:100D000055B94EE00120BDE8F08100BF0B60486995
:100D100020F0070040EA020C6FF00F004AF6AB2209
:100D200050FA81F0CAF6AA22A0FB02231A0943F264
:100D3000B223C0F600039A5C40F2FF335F284FF005
:100D40003F00C1F814C021EA030100FA02F088BF95
:100D50000431C4E916128860002301220020636573
:100D600084F83520BDE8F081032220230320636549
:100D700084F83520BDE8F081032DCDD80122402331
:100D80000120DFE805F0030E030500BFE7E700BF21
:100D9000AEF1C070B0FA80F0400904E0032D04D336
:100DA000BAD1CEF300600028B6D001224023012042
:100DB000636584F83520BDE8F0810000B0B50446D5
:100DC00000F0B8FA054640F20000C2F200000078D8
:100DD000611C18BF044400BF00F0ACFA401BA042E5
:100DE000FAD3B0BD70B582B0002843D00446D0F825
:100DF000840028B92320C4F88400204600F022F99A
:100E00000020019043F64400C4F2020001684FF450
:100E1000805641F480410160006800F480400190F8
:100E2000019843F60400C4F20100016821F40001B6
:100E300001602168A26803681A430260006888594B
:100E400040F00100885100F075FA0546206881598C
:100E5000C90713D000F06EFA401BB0F5FA7FF5D940
:100E60000120E0220421C4F88810C4F8842002B0D4
:100E700070BD00BF012002B070BD00BF016848F224
:100E80000F12CFF62072114001F59C4101600568F8
:100E90000120FFF793FF20684FF6417205608169DA
:100EA00011408031816185690120FFF787FF20684B
:100EB00041F218018561425843F62373CFF6DE03F1
:100EC0001A4042F0087242F0040242504558012094
:100ED000FFF774FF206800F580518D6142F28001B8
:100EE0004FF48055C0F2C121415146590120FFF70E
:100EF00065FF2068E26800214651116051609160F1
:100F0000D160A261136800F5805C43F48013136024
:100F100002F12803D360166844F2F45546F4400603
:100F200016609162D16211635163E361936A43F485
:100F30008013936202F150035363966A46F44006AD
:100F40009662116551659165D1652362136D43F415
:100F50008013136502F17803D365166D46F44006DD
:100F600016659167D167C2F88010C2F88410636279
:100F7000936F43F480139367C2F88420936F43F414
:100F800040039367A162CCF8102022694FF0004320
:100F9000116051609160D160C2E908111360556021
:100FA000566826F00046566002F12806A264D66014
:100FB0009162D16211635163C2E912119362D562E9
:100FC000D06A20F00040D06202F15000E664506325
:100FD000116551659165D165C2E91C1113655565AF
:100FE000566D26F000465665206502F17800D06502
:100FF0009167D167C2F88010C2F88410C2E9261147
:101000009367D567D36F23F00043D3676065C2F859
:1010100084202166C4E91A11C4E91611CCF80C2009
:10102000606848F240038288C4F202031A600068D4
:10103000102258600020C4F88810C4F8842002B040
:1010400070BD00002DE9F04385B0006848F2000152
:10105000C4F20201884203D005B0BDE8F08300BFAE
:10106000002643F630000096C4F202000168002416
:1010700041F0007101600168C4F2020401F00071E6
:1010800000910099009601686D4641F08061016011
:1010900001684FF0020801F080610091009900960C
:1010A00001684FF0030941F00061016001680B27FE
:1010B00001F00061009100990096016841F004017F
:1010C0000160016801F00401009100990096016837
:1010D00041F001010160016801F0010100910099F6
:1010E0000096016841F002010160016801F002010F
:1010F000009100990096016841F04001016000688C
:10110000294600F04000009000983220009004F53D
:101110000060CDE90186CDF80C90049700F026F828
:101120008620CDE9000820462946CDE902690497CA
:1011300000F01CF84FF40050CDE9000804F5806081
:101140002946CDE90269049700F010F84FF42050C9
:10115000CDE9000804F5C0502946CDE9026904979D
:1011600000F004F805B0BDE8F08300002DE9F04F71
:1011700082B000F13E4242F2004502F1FF77C4F234
:1011800002050A224FEAB726A84208BF0922092E03
:1011900038BF4FEAB7224FF0010A002400274FF072
:1011A0000008009208E000BF023708F10108202F74
:1011B00004F1040400F0B4800E680AFA08F916EA93
:1011C000090FF1D0D1F804A00AF0030BABF101062E
:1011D000012E17D80322866802FA07FECA6826EA9B
:1011E0000E06BA40324382604268CAF3001522EA12
:1011F000090205FA08F54FEA480C6FEA0E062A4381
:1012000042600BE00322BA40D643BBF1030FBC4659
:1012100004D1BC464FF0030B22E000BFC2688D68CA
:10122000324005FA0CF52A43BBF1020FC26017D118
:101230006FF0030202EA5802024404F01C030F2577
:10124000D2F820E005FA03FA0D692EEA0A0E05FA33
:1012500003F343EA0E031362D1F804A00AF0030B70
:1012600002680BFA0CF332401A431AF4403F4FF075
:10127000010A026098D0002243F644030192C4F2AE
:1012800002031A6843F6004E42F480421A601A685C
:10129000C4F2010E02F480420192019A28F0030286
:1012A0004FF6084C7244CFF6FF7C52F80C3004F035
:1012B0000C060F25B540AB43009D05FA06F63343F7
:1012C00042F80C30DEF808204B6842EA090643F683
:1012D0000C4CDD0258BF22EA0906CEF80860C4F2C1
:1012E000010CDCF800209D0242EA090658BF22EA00
:1012F0000906CCF80060DEF804209D0342EA0906E6
:1013000058BF22EA0906CEF80460DEF80020DB03AD
:1013100042EA090658BF22EA0906CEF8006043E710
:1013200002B0BDE8F08F0000002A08BF0904816107
:101330007047000040F60410C2F2000000687047D9
:1013400040F2000040F60411C2F20000C2F20001B7
:1013500000780A68104408607047000080B543F6C2
:101360000040C4F20200016841F4007101600168AC
:1013700041F480610160016841F4807101600320E3
:1013800000F084F8002000F005F800F027F80020B5
:1013900080BD000070B540F20006C2F2000640F2C7
:1013A00008013278C2F200014FF47A730968B3FB86
:1013B000F2F20446B1FBF2F1084600F023FC0F2CD8
:1013C0004FF0010508D838B94FF0FF302146002210
:1013D000002500F02FF87460284670BD82B0002010
:1013E00043F640010190C4F202014A6842F480428F
:1013F0004A604A6802F480420192019A00900868AB
:1014000040F080500860086800F08050009000981C
:1014100002B07047002848BF704700F01F0101224A
:1014200002FA01F14EF200124009CEF2000242F837
:101430002010704710B54EF60C5CCEF2000CDCF8B4
:101440000030C3F3022E8EF00704042C28BF0424BE
:10145000BEF103034FF0FF3E0EFA04F438BF002341
:10146000A14399400EFA03F39A43114300F00F028F
:10147000043A624409010C3200F16043B0F1FF3FCD
:10148000C8BF03F56442117010BD00004EF60C5148
:10149000CEF200010A684FF6FF031A4060F30A22F9
:1014A00042F0806040F0FD70086070472DE9F04F19
:1014B0008BB0002800F086800446056890F8BD04D3
:1014C00028B9002084F8BC04204600F08FF80320DF
:1014D00084F8BD04E86BC0055CBF00202061206873
:1014E00001F00EFD206804F11C0A0A90D4E90C50AA
:1014F00004F1040E9AE8C0079EE80E58CDE90850A2
:1015000003A880E8C0030A988DE80058CDF81CA015
:1015100001F0B4F9002852D120680021002501F023
:10152000F7FC616861B301200023002203EBC303D1
:1015300004EB830787F83C20D3B20132A7F844308C
:10154000D3B2994287F83D0087F84050C7E9125559
:101550007D65EBD800200023002200BF03EBC3030E
:1015600004EB830787F87C220132D3B2994287F8D3
:101570007D0287F88002C7E9A200C7F89402EDD87F
:10158000A06822680A90D4E90C5004F1140E04F10A
:10159000240AD4E903379EE840589AE80007CDE9C9
:1015A000085002A880E8005810460A9ACDE9007653
:1015B000CDE90589CDF81CA001F060FA40B1022008
:1015C00084F8BD04012528460BB0BDE8F08F00BFAC
:1015D0000025012084F8385084F8BD04206801F00B
:1015E0003DFA28460BB0BDE8F08F0000F0B587B09B
:1015F0000068B0F1A04F01D007B0F0BD002743F65E
:1016000030060297C4F202063068002440F0010060
:1016100030603068C4F2020400F0010002900298C9
:101620004FF4E85002900220CDE903070320059013
:101630000A2002AD069020462946FFF797FD4FF499
:101640000070CDE90207204629460497FFF78EFD7A
:10165000706840F0800070600197706940F48040CD
:101660007061706900F480400190019807B0F0BD8E
:101670002DE9F041002800F08B8043F60808C4F201
:1016800002080446D8F8F8030D4600F00F0088421F
:1016900007D288F8F853D8F8F80300F00F00A842F2
:1016A00076D12068810717D5410705D5D8F80010F5
:1016B00041F4E051C8F80010010705D5D8F8001032
:1016C00041F46041C8F80010D8F80010A26821F079
:1016D000F0011143C8F80010C0073FD1D8F8F80353
:1016E00000F00F00A84207D988F8F853D8F8F8039B
:1016F00000F00F00A8424BD12068410707D5D8F869
:101700000010E26821F4E0511143C8F8001000070E
:1017100008D5D8F80000216920F4604040EAC100F3
:10172000C8F8000000F07CF8D8F8001043F29A22C4
:10173000C1F30311C0F60002515C40F2080220FA26
:1017400001F140F20400C2F200000068C2F200029F
:101750001160FFF71FFE0020BDE8F0816068811E68
:10176000022907D258F8081C89015CBF0120BDE896
:10177000F08111E0012807D158F8081C89035CBFEB
:101780000120BDE8F08107E058F8081C890703D460
:101790000120BDE8F08100BFD8F8001021F003015E
:1017A0000843C8F80000FFF7C5FD064641F2883738
:1017B000D8F80000616800F00C00B0EB810F8DD00C
:1017C000FFF7B8FD801BB842F2D90320BDE8F081D5
:1017D00040F2080043F60801C2F20000C4F2020120
:1017E0000068096843F2AA22C1F38221C0F6000210
:1017F000515CC8407047000040F2080043F6080101
:10180000C2F20000C4F202010068096843F2AA2291
:10181000C1F34231C0F60002515CC840704700007D
:1018200010B543F60404C4F20204606800F00C0131
:1018300042F200400829C0F2F40007D0042918BF82
:1018400010BD41F20020C0F27A0010BD216801F005
:101850003F02216823684902C3F3881106D4A1FB23
:1018600000010023FEF712FD07E000BF41F2002057
:10187000C0F27A004843B0FBF2F021680222C1F3C3
:10188000014102EB4101B0FBF1F010BD2DE9F04147
:1018900082B000286AD00446007843F60006C007EC
:1018A000C4F202060BD0B06800F00C00042840F02F
:1018B000A1803068800302D56068002856D0207867
:1018C00080071AD5B06810F00C0F09D0B06800F08E
:1018D0000C00082840F0A8807068400200F1A48045
:1018E0003068800702D5E06801283FD1306821695F
:1018F00020F0F80040EAC10030602078000739D4B9
:10190000207840074ED4A5695DB3B06800F00C00A4
:10191000082840F0BD80012D28D07068E16900F4EE
:1019200080028A4222D1216A00F03F028A421DD100
:1019300047F6C071626A0140B1EB821F16D1A26AFC
:101940000023CFF6FF7303EBC23200F440316FF394
:101950000F0291420AD1E16A00F07060B0EB016FB2
:1019600004D1002002B0BDE8F08100BF012002B028
:10197000BDE8F0816069002840F20000C4F2472011
:1019800076D00121C0F8801EFFF7D4FC054600BFC9
:10199000706F8007B4D4FFF7CDFC401B0228F7D945
:1019A000DDE000BF306C10F080580AD100200190BB
:1019B000306C40F080503064306C00F0805001900A
:1019C000019847F20007C4F200073868C00541D407
:1019D000386840F480703860FFF7ACFC054600BF03
:1019E0003868C00536D4FFF7A5FC401B0228F7D99C
:1019F000B5E000BFB06800F00C00082803D17068A3
:101A000040023FF556AF6068B0F5803F07D0B0F5B3
:101A1000A02F40F08D80306840F480203060306826
:101A200040F4803030608DE0E068002852D0002023
:101A3000C4F2472001210160FFF77CFC054600BF8E
:101A4000306880073FF552AFFFF774FC401B022857
:101A5000F6D984E0A068012805D005284ED1306F62
:101A600040F004003067306F40F0010030674FE015
:101A70000021C0F8801EFFF75DFC0546706F8007EF
:101A80007FF53EAFFFF756FC401B0228F6D966E013
:101A90000027C4F2472700203866FFF74BFC022DD1
:101AA00005460BD1306880015ED5FFF743FC401B33
:101AB00002284FF00300F5D954E700BF30688001D9
:101AC0007FF54FAFFFF736FC401B02284FF00300B5
:101AD000F4D947E70020C4F2472000210160FFF756
:101AE00029FC0546306880077FF507AFFFF722FC29
:101AF000401B02284FF00300F4D933E7316F002870
:101B000021F001013167316F21F0040131674DD0BF
:101B1000FFF710FC054641F2883700BF306F8007A1
:101B200056D4FFF707FC401BB842F7D917E000BFB7
:101B30003168002821F480313160316821F480213E
:101B400031604FD0FFF7F6FB054600BF30688003D9
:101B50003FF5B5AEFFF7EEFB401B6428F6D9032036
:101B600002B0BDE8F08100BF04F11C052FCD084391
:101B70000021CFF6FF7140EA821001EBC3316FF311
:101B80000F0140EA05600843706001203866FFF7E6
:101B9000D1FB0446306880013FF5E3AEFFF7CAFB96
:101BA000001B02284FF00300F4D9DBE6FFF7C2FB6D
:101BB000054641F2883700BF306F800708D5FFF730
:101BC000B9FB401BB8424FF00300F5D9CAE600BF8D
:101BD000B8F1000F7FF497AE306C20F08050306485
:101BE00091E600BFFFF7A6FB054600BF3068800303
:101BF0007FF565AEFFF79EFB401B64284FF00300A6
:101C0000F4D9AFE6411E0020B0EB116F1CBF0120DC
:101C100070474EF21002CEF2000251604EF6235190
:101C2000CEF20001F0230B70072190601160704725
:101C30007047000070470000B0B582B004460068ED
:101C40000168C368426901F02F05202D03F02005CB
:101C500006D12DB1204602B0BDE8B04000F016BD5F
:101C60005FEA017C1EBF02F0010E03F4907212EBDA
:101C70000E0255D1226B012A05D111F0100218BFB6
:101C800013F0100236D10A0622D513F080021FD0BD
:101C900094F83D10212941D1A168B1F5805F03D1AD
:101CA0002169002900F06C82216A4A1C22620978AD
:101CB0004160E18C01390A04E1842FD1C16821F02F
:101CC0008001C160C16841F04001C16002B0B0BD97
:101CD000490623D513F0400120D0C16821F040010E
:101CE000C1602021204684F83D1002B0BDE8B0401C
:101CF00000F056BC002101910168019141680191F9
:101D000001994169490600F18B80A18DE28DE38D37
:101D1000002B1CBF891A5FEA01420CD102B0B0BD92
:101D2000CA0718BF13F4807240F032814A0700F1ED
:101D300035813AE1206850E8030F226820F4907062
:101D400042E80303DBB1206850E8030F226820F467
:101D5000907042E8030393B1206850E8030F2268B3
:101D600020F4907042E803034BB1206850E8030F61
:101D7000226820F4907042E80303002BDAD1206837
:101D800050E8050F226820F0010042E80503DBB1AE
:101D9000206850E8050F226820F0010042E80503A2
:101DA00093B1206850E8050F226820F0010042E856
:101DB00005034BB1206850E8050F226820F00100B0
:101DC00042E80503002BDAD1202084F83E000020F1
:101DD0002063206850E8030F226820F0100042E8DA
:101DE0000303DBB1206850E8030F226820F01000E5
:101DF00042E8030393B1206850E8030F226820F003
:101E0000100042E803034BB1206850E8030F22683A
:101E100020F0100042E80303002BDAD189B2B0E0D1
:101E2000A26B11684B689DB2002D3FF477AFA18D76
:101E30008D42BFF473AFE385D269B2F5807F00F0C5
:101E40009D8050E8030F216820F4807041E8030270
:101E5000E2B1206850E8030F216820F4807041E867
:101E600003029AB1206850E8030F216820F48070C3
:101E700041E8030252B1206850E8030F216820F4C2
:101E8000807041E803020AB12068DAE7206850E870
:101E9000050F216820F0010041E80502DAB1206851
:101EA00050E8050F216820F0010041E8050292B1D9
:101EB000206850E8050F216820F0010041E8050284
:101EC0004AB1206850E8050F216820F0010041E880
:101ED0000502002ADAD1206850E8050F216820F0B9
:101EE000400041E80502DAB1206850E8050F21689A
:101EF00020F0400041E8050292B1206850E8050F4B
:101F0000216820F0400041E805024AB1206850E80D
:101F1000050F216820F0400041E80502002ADAD1CF
:101F2000202084F83E0000202063206850E8030F42
:101F3000216820F0100041E80302DAB1206850E87F
:101F4000030F216820F0100041E8030292B12068DD
:101F500050E8030F216820F0100041E803024AB165
:101F6000206850E8030F216820F0100041E80302C8
:101F7000002ADAD1A06BFEF733FDA18DE08D081A9F
:101F800081B2204602B0BDE8B040FFF751BE00BFAD
:101F9000226C42F0010222644A0706D5BEF1000F0E
:101FA00003D0226C42F0020222648A0706D5BEF1F9
:101FB000000F03D0226C42F004022264BCF1000F37
:101FC00006D555EA0E0203D0226C42F008022264C4
:101FD000226C002A3FF4A2AE11F0200118BF002DA0
:101FE00003D0204600F052FB20684169226C01F0CA
:101FF000400102F00802891800F0A28050E8030FA7
:10200000216820F4907041E80302C2B3206850E8D0
:10201000030F216820F4907041E803027AB320682E
:1020200050E8030F216820F4907041E8030232B3B6
:10203000206850E8030F216820F4907041E8030203
:10204000EAB12068DAE700BF206850E8050F216890
:1020500020F0010041E80502DAB1206850E8050FE0
:10206000216820F0010041E8050292B1206850E8A3
:10207000050F216820F0010041E805024AB12068FF
:1020800050E8050F216820F0010041E80502002A10
:10209000DAD1206B012824D1206850E8030F216891
:1020A00020F0100041E80302DAB1206850E8030F85
:1020B000216820F0100041E8030292B1206850E846
:1020C000030F216820F0100041E803024AB12068A4
:1020D00050E8030F216820F0100041E80302002AB5
:1020E000DAD1202084F83E00002020632068416976
:1020F00049063FD550E8050F216820F0400041E82F
:1021000005022AB3206850E8050F216820F040003E
:1021100041E80502E2B1206850E8050F216820F08F
:10212000400041E805029AB1206850E8050F216897
:1021300020F0400041E8050252B12068DAE700BF14
:102140002046FFF777FD0020206402B0B0BD00BF3D
:10215000A06B78B142F28161C0F600010165FEF723
:1021600089FC00283FF4DAADA06B016D02B0BDE838
:10217000B0400847204602B0BDE8B040FFF75ABD66
:10218000216A31F8022B6FF35F224260216290E5F1
:10219000002804BF0120704710B5044690F83D00A8
:1021A00028B9002084F83C00204600F021F82420C3
:1021B00084F83D002068C16821F40051C1602046C8
:1021C00000F0E4FA2068016921F49041016141695D
:1021D00021F02A014161C16841F40051C160002031
:1021E0002021206484F83D1084F83E1010BD0000CA
:1021F00070B586B00446216844F60002C4F20002BD
:1022000000209142CDE90400CDE90200019059D0AF
:1022100044F20040C4F2000081427CD1002643F623
:1022200030000096C4F20200016941F400310161FE
:10223000016901F40031009100990096016841F0B4
:1022400008010160006801A900F0080000900098F2
:10225000602001900220CDE90206032004900720AF
:10226000059040F60040C4F20200FEF77FFF40F206
:10227000602546F28800C2F20005C4F202004FF069
:1022800000614FF480624FF4807385E84300284674
:10229000C5E90362C5E90566C5E907366E62FEF762
:1022A000DBFC002818BFFEF7D7F82620002100220B
:1022B000A563AC63FFF7BEF82620FFF7ABF806B0C6
:1022C00070BD00BF43F630010090C4F202010A69FC
:1022D00042F480220A610A6902F480220092009A84
:1022E00000900A6842F008020A60096801F00801DB
:1022F000009100994FF4407101910221CDE9021043
:10230000032004900720059040F60040C4F202002C
:1023100001A9FEF72BFF06B070BD0000704700005A
:102320002DE9F04381B0044690F83D0020280DD1FE
:102330000F4600294FF0010000F0DD801646002A0C
:1023400000F0D98094F83C00012803D1022001B0AC
:10235000BDE8F083012084F83C004FF00009212003
:102360001D46C4F8409084F83D00FEF7E3FFA684C4
:10237000E684A1680646B1F5805F07D12069002890
:102380001CBF38464F46B846074601E04FF00008EC
:1023900084F83C90E18C2068002900F08B8005F1E6
:1023A00001090AE047B317F8011B4160E18C0139CC
:1023B000E184E18C002900F07D8001680906F1D4F8
:1023C000B9F1000F0AD0EDB1FEF7B4FF801BA842AF
:1023D00018D8206801680906F6D5E3E70168090600
:1023E000E0D4016809065CBF01685FEA0161D9D4E5
:1023F00001680906F2D5D5E738F8021B00276FF30C
:102400005F21D2E7206850E8030F216820F4D070E4
:1024100041E80302BAB3206850E8030F216820F4B2
:10242000D07041E8030272B3206850E8030F2168BE
:1024300020F4D07041E803022AB3206850E8030F6B
:10244000216820F4D07041E80302002ADAD11AE0B2
:10245000206850E8050F216820F0010041E80502DE
:10246000DAB1206850E8050F216820F0010041E84A
:10247000050292B1206850E8050F216820F00100A4
:1024800041E805024AB1206850E8050F216820F0B4
:10249000010041E80502002ADAD1202084F83D003D
:1024A00084F83E00002084F83C00032001B0BDE821
:1024B000F08300BF0168490619D4FDB1691C0DD134
:1024C0000168490613D4016849065CBF01685FEAE8
:1024D00041610CD401684906F2D508E0FEF72AFFF5
:1024E000801BA8420AD8206800684006F6D5202044
:1024F00084F83D00002001B0BDE8F083206850E87A
:10250000030F216820F4D07041E80302E2B3206891
:1025100050E8030F216820F4D07041E803029AB319
:10252000206850E8030F216820F4D07041E80302CE
:1025300052B3206850E8030F216820F4D07041E8BE
:102540000302002ADAD11FE0206850E8050F216855
:1025500020F0010041E80502002A9ED0206850E8E2
:10256000050F216820F0010041E80502002A3FF430
:1025700094AF206850E8050F216820F0010041E881
:102580000502002A3FF489AF206850E8050F216852
:1025900020F0010041E80502002AD5D17DE70000C6
:1025A00070470000FEE70000FEE70000FEE70000C5
:1025B0007047000070470000FEF7C2BEB0B592B091
:1025C000002443F64000CDE90A44CDE908440594CF
:1025D000CDE90344CDE901440094C4F2020001684E
:1025E000022541F080510160006800F080500090A9
:1025F000009847F200000094C4F20000016841F422
:1026000040410160006800F44040009000980120C3
:1026100006904FF4A02007904FF480000D90042006
:102620000E90A820CDE90F050720119006A80C9563
:10263000FFF72CF920B1EFF3108072B6FEE700BF70
:102640000F20CDE901054FF4A05004904FF48050C5
:10265000059001A805210394FFF70AF820B1EFF3D4
:10266000108072B6FEE700BF12B0B0BD4EF68850C3
:10267000CEF20000016841F4700101607047000073
:10268000806B0021C185C184FFF7D4BA81B090F876
:102690003E10222920D18368B3F5805F08D10169FB
:1026A000002965D000F128010A6803685B680AE028
:1026B000014651F8282F13B90369002BF5D00368A0
:1026C0005B6803F07F0313700A6801320A60C18DF2
:1026D00001390A04C18501D001B070470168CA6898
:1026E00022F02002CA60CA6822F48072CA604A6975
:1026F00022F001024A61202280F83E20026B012A6A
:1027000040D10022026300BF51E8031F026821F09C
:10271000100142E803130168DBB151E8031F0268AE
:1027200021F0100142E80313016893B151E8031F3F
:10273000026821F0100142E8031301684BB151E82F
:10274000031F026821F0100142E803130168002B07
:10275000DAD10A68D20606D5002200920A680092F1
:10276000496800910099818D01B0FFF761BA00BFFF
:102770000168826A49686FF35F2122F8021B826256
:10278000A5E700BF01B0FFF7C9BD000010B50446C2
:102790000068D4E902C22369016921F44051114360
:1027A0000161626943EA0C01E3691143C26819439C
:1027B00049F20C639A431143C1604169A26921F453
:1027C000407141F20043114340F48062C4F20103BE
:1027D0009A42416102D1FFF70FF801E0FEF7F8FFDE
:1027E000E16963681922B1F5004FA0FB02011FD116
:1027F0005A00DB0FFDF74AFD48F21F51C5F2EB11FD
:10280000A0FB01235A096FF0630302FB030032238C
:1028100003EBC000A0FB01014FF4F87000EA1110B7
:1028200000EB0210C1F3421108442168886010BD1A
:102830009A009B0FFDF72AFD48F21F51C5F2EB11DC
:10284000A0FB01235A096FF0630302FB030032234C
:1028500003EB0010A0FB0101F02000EA511000EB97
:102860000210C1F3431108442168886010BD0000C4
:1028700040F67C00C2F20000FFF7DEB982B0049996
:10288000DDF808C0012940F64051C0F203016FD1C4
:10289000826B4FF6BF7322F480328263C268CFF638
:1028A000BD731A40C260C2680B9B22F44012012B18
:1028B000C26003D1C26842F48012C260002200925A
:1028C000009A01320092009A8A4200F2A9800269BD
:1028D000002A1ED4009A01320092009A8A4200F225
:1028E0009F800269002A14D4009A01320092009A53
:1028F0008A4200F295800269002A0AD4009A0132C5
:102900000092009A8A4200F28B800269B2F1FF3F86
:10291000D6DC00220092026942F001020261009AB4
:1029200001320092009A8A427AD80269D2071AD0FC
:10293000009A01320092009A8A4271D80269D20745
:1029400011D0009A01320092009A8A4268D8026936
:10295000D20708D0009A01320092009A8A425FD8CA
:102960000269D207DBD10021BCF1010F72D169E00D
:10297000C268089B42F04002C26000220192019AA4
:1029800001320192019A8A4250D80269002A1BD46E
:10299000019A01320192019A8A4247D80269002ABB
:1029A00012D4019A01320192019A8A423ED80269F8
:1029B000002A09D4019A01320192019A8A4235D83B
:1029C0000269B2F1FF3FDADC00220192026942F0B3
:1029D00001020261019A01320192019A8A4225D8CC
:1029E0000269D2071AD0019A01320192019A8A42F1
:1029F0001CD80269D20711D0019A01320192019AC2
:102A00008A4213D80269D20708D0019A0132019292
:102A1000019A8A420AD80269D207DBD1002106E076
:102A20000321BCF1010F15D10CE000BF0321826B23
:102A3000002B14BF22F4803242F480328263BCF156
:102A4000010F07D1826842F006028260826842F07C
:102A500020028260084602B0704700000146D0F8AC
:102A6000000E20F00300C1F8000ED1F8040840F079
:102A700002020020C1F80428704700002DE9F04F41
:102A800083B0DDF84CE00E9F0022BEF1000FC0F8CD
:102A90000421C0F80821C0F80C21C0F81021C0F8AA
:102AA0001421C0F81821C0F81C21C0F82021C0F85A
:102AB0002421C0F82821C0F82C21C0F83021C0F80A
:102AC0003421C0F83821C0F83C210BD0826B00F5CE
:102AD000006A22F400128263826B42F40022826355
:102AE00014E000BFD0F8042800F5006A42F00202AA
:102AF000C0F80428826B42F400128263826B22F4D5
:102B000000228263866B26F4802686630026C0F846
:102B1000006EDAF80060012FCAF8006006D1DAF81A
:102B20000070002B18BF47F0010703E0DAF800300F
:102B300043F00307DDF83090DDF83C8040F6405567
:102B4000C0F203050023CAF800700193019B013312
:102B50000193019BAB4249D80369002B1BD4019B15
:102B600001330193019BAB4240D80369002B12D47F
:102B7000019B01330193019BAB4237D80369002BC2
:102B800009D4019B01330193019BAB422ED8036909
:102B9000B3F1FF3FDADC002301934FF48463036158
:102BA000019B01330193019BAB421FD803699B0634
:102BB0001AD5019B01330193019BAB4216D80369DF
:102BC0009B0611D5019B01330193019BAB420DD8AC
:102BD00003699B0608D5019B01330193019BAB421E
:102BE00004D803699B06DBD4002400E00124002301
:102BF0000293029B01330293029BAB4248D80369C4
:102C0000002B1BD4029B01330293029BAB423FD8A3
:102C10000369002B12D4029B01330293029BAB4247
:102C200036D80369002B09D4029B01330293029B1F
:102C3000AB422DD80369B3F1FF3FDADC00230293E6
:102C400010230361029B01330293029BAB421FD806
:102C50000369DB061DD5029B01330293029BAB4245
:102C600016D80369DB0614D5029B01330293029B3D
:102C7000AB420DD80369DB060BD5029B01330293EF
:102C8000029BAB4204D80369DB06DBD401E000BF42
:102C900001244FF0000B0029CAF810B0CAF814B094
:102CA000CAF81CB000F0FE8000F510673B684FF0DA
:102CB000006505EA13134FF67F324E1E3B60C7F8DE
:102CC00010B0BA6073D08B1E032B06F00302009481
:102CD00004D22024002A42D162E000BF26F0030380
:102CE0004FF0000E4FF090484FF67F3C4FF0000938
:102CF00000EB0904D4F82059043B08EAE575C4F850
:102D00002059C4F830E9C4F828C9D4F8405909F169
:102D1000800908EAE575C4F84059C4F850E9C4F8D8
:102D200048C9D4F8605908EAE575C4F86059C4F890
:102D300070E9C4F868C9D4F8805908EAE575C4F8A0
:102D40008059C4F890E9C4F888C9D1D109F12004A8
:102D5000DDF84CE0DDF83C80DDF8309002B33D5901
:102D60004FF0904C0CEAE5753B193D5100244FF6AD
:102D70007F37012A1C619F6012D01D6A022A0CEA6B
:102D8000E5751D621C639F620AD01F6C4FF0904571
:102D900005EAE7771F6400271F654FF67F379F64BA
:102DA000009C00294FF67F324FF000657AD0D0F8B2
:102DB000003B002E05EA1313C0F8003B4FF0000360
:102DC000C0F8103BC0F8082B6CD00239032906F07C
:102DD000030C05D22023BCF1000F3ED162E000BFFE
:102DE000009426F0030300274FF090464FF67F34FF
:102DF000002100BF4518D5F8202B043B06EAE272FB
:102E0000C5F8202BC5F8307BC5F8284BD5F8402BEA
:102E100001F1800106EAE272C5F8402BC5F8507B4B
:102E2000C5F8484BD5F8602B06EAE272C5F8602B6E
:102E3000C5F8707BC5F8684BD5F8802B06EAE272BE
:102E4000C5F8802BC5F8907BC5F8884BD2D1009C83
:102E500001F12003BCF1000F24D000F53062D658F8
:102E60004FF0904707EAE676D118D65000264FF685
:102E70007F33BCF1010F0E618B6013D00A6ABCF185
:102E8000020F07EAE2720A620E638B620AD00A6CD2
:102E90004FF0904303EAE2720A6400220A654FF69B
:102EA0007F328A64DAF81010B9F1000F21F48071D2
:102EB000CAF810106FF08041C0F818B0416103D11A
:102EC000816941F010018161816943F60002C8F215
:102ED0003C021143B8F1000F816103D0816941F0D8
:102EE00008018161BEF1010F05D1816941F0804186
:102EF00041F004018161204603B0BDE8F08F00007D
:102F00000146806820F0010200208A6070470000BE
:102F1000B0B50446C06820F0C040E06091B101291E
:102F200026D1E068002540F00050E0600120FDF768
:102F300045FF6069C00705F1010014D1312D054638
:102F4000F4D310E0E068002540F08040E06000BF6E
:102F50000120FDF733FF6069C00705F1010002D0D1
:102F6000312D0546F4D33238B0FA80F04009B0BDB7
:102F70000120B0BDFEE7000086B041F60008C4F2B3
:102F80000208FEF7EBF9FFF719FB002743F63004C0
:102F9000CDE904770097C4F202042068A8F5A05593
:102FA00040F004002060206844F2810100F0040039
:102FB0000090009800972068002240F08000206078
:102FC000206844F2810900F080000090009800978A
:102FD000206840F001002060206800F001000090AF
:102FE00000980097206840F002002060206800F000
:102FF0000200009000980097206840F008002060D0
:10300000206800F00800009000980097206840F0C9
:1030100040002060206800F04000009000982846A2
:10302000FEF782F94046402100224FF0400AFEF7A9
:103030007BF94FF4005001904FF4881001AECDE9B8
:103040000207A8F580503146FEF790F8CDF80490BD
:103050004FF0010928463146CDE902970497FEF763
:1030600085F840463146CDE901A9CDE90377FEF761
:103070007DF88020CDE90107404631460397FEF7F1
:1030800075F801972068002140F400102060206846
:10309000002200F40010019001981020FEF7CAF9F8
:1030A0001020FEF7B7F940F218200123A8F5784167
:1030B000C2F20000C0F6007304974FF48032077626
:1030C00080F82070C0E90A37C0F81C9080F8307092
:1030D00080E88600C0E90377C0F81490FDF774FA21
:1030E00020B1EFF3108072B6FEE700BF0320CDE9F8
:1030F000010940F21820C2F2000001A90397FDF770
:10310000B1F928B1EFF3108072B600BFFEE700BF3F
:1031100040F29007C2F2000748F2000240F2C020DD
:1031200048F2000CC0F2E1023B4640F2781640F251
:10313000D805C2F20000C4F2020C43F8082F0024A4
:103140004FF40002C2F20006C2F2000540F2F45150
:103150009C80C0E900C3C0E90226C0E90451FDF724
:1031600041FE28B1EFF3108072B600BFFEE700BF4A
:1031700007F114003421FDF701F9212038614FF4E3
:103180004000786240F67C00A8F5EA31C2F2000007
:103190000C254FF4165280E81600C0E90344C0E93C
:1031A0000554C461FEF7F4FF20B1EFF3108072B64E
:1031B000FEE700BF40F6C000A8F5E831C2F200000B
:1031C00000244FF4E13280E81600C0E90344C0E96E
:1031D0000554C461FEF7DCFF20B1EFF3108072B636
:1031E000FEE700BF40F27030C2F200004FF0A04195
:1031F0000422C0E900120221012200F11803C0E9F3
:10320000031416C34462C0E90B24FEF74FF928B13A
:10321000EFF3108072B600BFFEE700BF40F2182443
:1032200040F20C0540F67C06C2F20004C2F2000532
:10323000C2F2000604E000BF4FF4FA70FDF7BEFDD5
:103240002046FDF721FB20460521FDF79FFA0028C7
:10325000F2D12046FDF7B4F9386000EB8000C0F3EE
:10326000D32000EE100A2870B8EE400A30462946F6
:103270001E224FF47A7387ED010AFFF751F8DBE75E
:10328000F1EE100A4FF6FF71C0F2C03120EA0100E2
:1032900040F04070E1EE100A7047000000000000AE
:1032A00000000102030406070809000000000102F3
:1032B000030400061016000610160000E032000895
:1032C0000000002030000000E80100081033000872
:1032D00030000020D80E00000402000800000000AA
:1032E00001000000100000000024F40048656C6C30
:1032F0006F20576F726C640A0D0000000000000020
:1033000000000000000000000000000000000000BD
:04000005080001AD41
:00000001FF
